:020000040800F2
:1000000008720020650100089B220008F320000808
:100010009922000807030008D53A000800000000F4
:100020000000000000000000000000004323000862
:1000300009030008000000004123000845230008D0
:100040007F0100087F0100087F0100087F01000890
:100050007F0100087F0100087F0100087F01000880
:100060007F0100087F0100087F0100087F01000870
:100070007F0100087F0100087F0100087F01000860
:100080007F0100087F0100087F0100087F01000850
:100090007F0100087F0100087F0100087F01000840
:1000A0007F0100087F0100087F0100087F01000830
:1000B0007F0100087F0100087F0100087F01000820
:1000C0007F0100087F0100087F0100087F01000810
:1000D0007F0100087F0100087F0100087F01000800
:1000E0007F0100087F0100087F0100080000000078
:1000F0000000000000000000000000000000000000
:1001000000000000000000007F0100087F010008DF
:100110007F0100087F0100087F0100087F010008BF
:100120007F0100087F0100087F0100087F010008AF
:100130007F01000800000000000000007F010008AF
:100140007F0100087F0100087F0100089D22000850
:10015000DFF80CD000F09AF800480047854000080E
:10016000087200200648804706480047FEE7FEE781
:10017000FEE7FEE7FEE7FEE7FEE7FEE7FEE7FEE757
:10018000C5230008510100082DE9F05F0546002055
:1001900092469B4688460646814640241BE02846F8
:1001A00041464746224600F020F853465A46C01AB8
:1001B000914110D311461846224600F058F82D1AE6
:1001C00067EB01084F4622460120002100F04FF85E
:1001D00017EB00094E41201EA4F10104DFDC484664
:1001E00031462A464346BDE8F09F202A04DB203AE8
:1001F00021FA02F00021704721FA02F3D040C2F147
:100200002002914008431946704740EA01039B07CA
:1002100003D009E008C9121F08C0042AFAD203E07B
:1002200011F8013B00F8013B521EF9D27047D2B2DF
:1002300001E000F8012B491EFBD270470022F6E7CF
:1002400010B513460A4604461946FFF7F0FF20464C
:1002500010BD10B54843044604F0AEF8002805D0A0
:100260000021002C02D0641E0155FAE710BD202A9F
:1002700004DB203A00FA02F1002070479140C2F1FD
:10028000200320FA03F3194390407047064C074DB2
:1002900006E0E06840F0010394E807009847103456
:1002A000AC42F6D3FFF758FFBC450008DC45000818
:1002B00070B58C1810F8015B15F0070301D110F828
:1002C000013B2A1106D110F8012B03E010F8016B55
:1002D00001F8016B5B1EF9D12B0705D40023521ED8
:1002E0000DD401F8013BFAE710F8013BCB1A921C40
:1002F00003E013F8015B01F8015B521EF9D5A1423E
:10030000D8D3002070BDFEE77047000006490020EA
:10031000C8610648016941F004010161016941F0C9
:100320004001016170470000E80900200020024000
:100330002DE9F047DFF89C80D8F820104CF25039B6
:100340000143CFB2C1F30726C1F307450C0E48465F
:1003500000F02AF900283BD11F49C86100F044FB96
:10036000002835D1D8F8102042F01002C8F810202B
:10037000FF2F07D01948018839430180484600F013
:1003800013F9F8B9FF2E08D01448801C01883143B6
:100390000180484600F008F9A0B9FF2D08D00F48A9
:1003A000001D018829430180484600F0FDF848B946
:1003B000FF2C07D00948801D018821430180484651
:1003C00000F0F2F8D8F8102022F01002C8F810203F
:1003D000BDE8F08700200240E809002008F8FF1F70
:1003E0002DE9F047DFF89C80D8F820104CF2503906
:1003F0008143CFB2C1F30726C1F307450C0E48462F
:1004000000F0D2F800283BD11F49C86100F0ECFA97
:10041000002835D1D8F8102042F01002C8F810207A
:10042000FF2F07D01948018839400180484600F065
:10043000BBF8F8B9FF2E08D01448801C0188314061
:100440000180484600F0B0F8A0B9FF2D08D00F4851
:10045000001D018829400180484600F0A5F848B9F0
:10046000FF2C07D00948801D0188214001804846A3
:1004700000F09AF8D8F8102022F01002C8F81020E6
:10048000BDE8F08700200240E809002008F8FF1FBF
:100490000449A520C96901F00201022900D1002008
:1004A000704700000020024070B506464CF25035FF
:1004B000284600F079F8002820D11149C861114C74
:1004C000206940F020002061206940F04000206158
:1004D000284600F069F8216921F0200121610028F7
:1004E0000CD1206940F010002061074806802846A2
:1004F00000F05AF8216921F01001216170BD00005F
:10050000E80900200020024000F8FF1F064A0021F1
:10051000D16106490A6942F002020A61486108692C
:1005200040F0400008617047E809002000200240C8
:10053000044B0022DA61044A136943F0010313619A
:1005400001807047E8090020002002401448002282
:10055000C168CB06134904D5CA6942F00202CA61D8
:100560001022C3685B0705D5CB6943F00103CB615B
:1005700042F00402C369DB0707D0CB6943F00403F0
:10058000CB61C16921F00101C161A2F5807101391E
:1005900001D0C2607047C16921F00101C16170479B
:1005A00000200240E809002070B5054600F02EFC4E
:1005B0000646114C09E0681C07D025B100F026FC66
:1005C000801BA84201D9032070BDE068C007F2D1AA
:1005D000E068800601D52020E060E068C00605D410
:1005E000E069C00702D1E068400703D5FFF7AEFF1E
:1005F000012070BD002070BD0020024010B590F8B1
:100600002020012A07D0022A05D0416A41F4802126
:100610004162012010BD3B48D0F8002242F00102A7
:10062000C0F80022D0F8002222F47C52C0F8002248
:10063000D0F800224B6A42EA0322C0F800220A7D69
:1006400002F01F0301229A40D0F81C329343C0F8F5
:100650001C32CB69B3B9D0F80C329343C0F80C32DA
:100660008C894B6864F31F434C6900EBC404C4F8E5
:1006700040320C890B6864F31F434C6900EBC404DF
:10068000C4F84432CB69012B16D1D0F80C32134395
:10069000C0F80C320C884B6864F31F434C6900EBC4
:1006A000C404C4F840320C89CB6864F31F434C691E
:1006B00000EBC404C4F844328B69002BD0F8043238
:1006C0000ED01343C0F804320B69002BD0F814325B
:1006D00008D01343C0F81432096A012904D008E095
:1006E0009343EFE79343F5E7D0F81C121143C0F8AA
:1006F0001C12D0F8001221F00101C0F800120020F5
:1007000010BD00000064004070B5040003D094F8F0
:10071000200010B104E0012070BD204600F082F8F6
:100720002068016821F00201016000F06FFB0546BE
:10073000052604E000F06AFB401B0A2811D8206857
:1007400040688007F6D42068016841F0010101602B
:1007500000F05CFB05460BE000F058FB401B0A284C
:1007600006D9606A40F40030606284F82060D2E705
:1007700020684068C007EFD0207E0128206801680B
:100780003DD021F080010160607E01282068016871
:1007900038D021F040010160A07E01282068016866
:1007A00033D021F020010160E07E0128206801683B
:1007B0002ED041F010010160207F012820680168DF
:1007C00029D021F008010160607F012820680168BC
:1007D00024D021F004010160D4E902010843D4E9E6
:1007E0000412114308436168491E08432168C86127
:1007F00000206062012084F82000002070BD41F0DC
:100800008001C0E741F04001C5E741F02001CAE79F
:1008100021F01001CFE741F00801D4E741F00401D5
:10082000D9E70000F0B585B00021374A0091019169
:100830000291039103681068324F344C022503265D
:100840003349401CBB422DD11060012807D1C86933
:1008500040F00070C861C86900F0007004908869B9
:1008600040F0080088618869694600F0080004903B
:100870004FF480700090204600F0D2F94FF40070E1
:10088000CDE9000569460396204600F0C9F92148E4
:10089000416821F4C04141F0E06141F48041416090
:1008A00005B0F0BD1C4FBB42FAD1CB6943F0806369
:1008B000CB61CB69012803F080630493106007D1FA
:1008C000C86940F00070C861C86900F00070049009
:1008D000886940F0080088618869694600F008006E
:1008E00004904FF480500090204600F099F94FF4A6
:1008F0000050CDE9000569460396204600F090F9C6
:10090000CEE70000006400407C010020000C0140A4
:1009100000100240000001400068004070B504462D
:1009200000F074FA0546601C02D0044800780444C4
:1009300000F06CFA401BA042FAD370BD8001002089
:100940002DE9F047054626480F460126017E01297C
:100950000FD00121814601762868DFF888804CF2AB
:100960005034022808D0A2462046FFF71DFEA8B149
:1009700031E00220BDE8F0872046FFF715FE08BBF6
:100980000120FFF7C3FC2046FFF70EFED8F8101039
:10099000064621F00401C8F810101CE04FF0FF30AB
:1009A0003860AC6811E02046FFF7B0FD5046FFF715
:1009B000FBFDD8F81010060021F00201C8F8101055
:1009C00001D03C6007E004F50064D5E9020100EBCA
:1009D000C120A042E7D8002189F818103046C9E7A5
:1009E000E80900200020024070B5FFF751FDC5B2B4
:1009F0004CF250363046FFF7D7FD002818D10D498C
:100A0000C8610D4C206940F020002061206940F051
:100A1000400020613046FFF7C7FD216921F0200129
:100A20002161002804D12846BDE87040FFF73CBD95
:100A300070BD0000E80900200020024070B50446A7
:100A4000064D07202060286AA060FFF721FD207472
:100A5000E869C0F38200607470BD000000200240AD
:100A60002DE9F0472D4D04460120297E01290ED0A5
:100A70000121297621784FF00007C9070DD0606861
:100A80000128A06806D0FFF753FCE8BB05E0022070
:100A9000BDE8F087FFF7A4FCF7E72178890703D5C5
:100AA000207CFFF701FD78BB21781D4E49074CF2F1
:100AB000503916D594F811804846FFF775FD78B97E
:100AC000EF61306940F010003061164948F088004D
:100AD00008804846FFF768FD316921F01001316157
:100AE00090B92178090716D5D4F81480247E484699
:100AF000FFF75AFD40B9EF61306940F010003061F6
:100B0000A8F80040484600E005E0FFF74DFD3169D8
:100B100021F0100131612F76BAE70000E8090020CA
:100B20000020024002F8FF1F0348016941F08001E4
:100B300001610020704700000020024000F004BA6C
:100B40000348016921F40071016100207047000031
:100B50000020024005480169890505D404498160E7
:100B60000449816000207047012070470020024046
:100B700023016745AB89EFCD2DE9F05F07461C489F
:100B800088460024017E15461E46012909D0012110
:100B9000814601764CF2503A5046FFF705FD18B1F8
:100BA00022E00220BDE8F09F012F02D0022F00D0EA
:100BB0000427D346DFF83CA0220128463146FFF740
:100BC00014FB81B208EB4400FFF7B2FC5846FFF774
:100BD000EBFCDAF8102022F00102CAF8102018B954
:100BE000641CE4B2BC42E7D3002289F81820D9E79C
:100BF000E809002000200240064900200A69120688
:100C000007D5054A4A60054A4A600969090600D5C0
:100C1000012070470020024023016745AB89EFCDDA
:100C20002DE9F84FDFF8B891002409F1040A0AF120
:100C3000040B23460F270BF1040EC9E00125A54044
:100C40002A40AA427DD1674ED1F804C0ACEB060819
:100C5000B44532D014DCBCF1030F3AD009DCBCF14E
:100C6000000F2AD0BCF1010F1CD0BCF1020F31D112
:100C70001DE0BCF1110F17D0BCF1120F2AD119E001
:100C8000B8F5881F19D006DCB8F5803F15D0B8F547
:100C9000801F1FD111E0B8F5001F0ED0B8F5041F5A
:100CA00018D10AE0CB6815E0CB681B1D12E0CB68B9
:100CB00008330FE0CB680C330CE08B682BB1012BB1
:100CC0004FF0080303D0456104E0042302E005610E
:100CD00000E00023FF2A01D8064601E000F10406E7
:100CE0004FEA840501D9A5F12005D6F8008007FA5E
:100CF00005FC28EA0C0803FA05F548EA0508C6F8D9
:100D000000804D68ED0062D5374DAE6946F00106B2
:100D1000AE61AD6924F0030605F001050095334D81
:100D200006EB050CDCF80850A607360F07FA06F8A4
:100D300025EA0805DFF8B880404503D14FF00008E8
:100D400017E044E0DFF8AC80404502D14FF00108E5
:100D50000FE0DFF8A480404502D14FF0020808E020
:100D6000DFF89880404502D14FF0030801E04FF0D2
:100D7000040808FA06F848EA0508CCF808804D6827
:100D8000D9F80060ED034D4601D5164300E09643C7
:100D90002E604D68DAF80060AD03554601D5164364
:100DA00000E096432E604D68DBF80060ED025D4682
:100DB00001D5164300E096432E604D68DEF80060D2
:100DC000AD02754601D5164300E096432E60641CC3
:100DD0000D682A46E5407FF431AFBDE8F88F00008A
:100DE000000401400000111000100240000001400A
:100DF00000080140000C01400010014000140140B7
:100E00000AB1016170470904FBE7000001488068EE
:100E10007047000080010020024881680278114478
:100E20008160704780010020074810B5016841F0DB
:100E300010010160032000F075F8002000F006F8B2
:100E400000F024F8002010BD0020024070B50D4DC8
:100E500004464FF47A712878B1FBF0F00A4909682A
:100E6000B1FBF0F001F066F848B9102C07D200226F
:100E70002146501E00F036F800206C6070BD012045
:100E800070BD0000800100208C0100200C4808B5D6
:100E9000816941F001018161816901F001010091E5
:100EA000C16941F08051C161C06900F0805000907B
:100EB0000448416821F0E06141F00071416008BDE3
:100EC0000010024000000140002809DB00F01F0272
:100ED000012191404009800000F1E020C0F800119C
:100EE00070470000F0B40E4B1B680C46C3F302239E
:100EF000C3F10705042D00D90425191D072901D2C6
:100F0000002300E0DB1E012606FA05F1491E214000
:100F100099409E40761E16403143F0BC02F0DBBD86
:100F20000CED00E0064900F0070208684FF6FF03E9
:100F3000184040EA0220034A10430860704700004E
:100F40000CED00E00000FA05BFF34F8F0548016883
:100F5000054A01F4E06111430160BFF34F8F00BF08
:100F6000FDE700000CED00E00400FA0500684162B6
:100F700000207047F0B50368586A39B19C6A4FF495
:100F8000827600EB144400204D1E0AE040EA024045
:100F900098620FE006EB8007DF59401C04EB174412
:100FA000C0B2A842F6D344EA02404FF4807202EB8A
:100FB000810158500020F0BD7047C1EBC10200EB29
:100FC0008202D0F8FC03926C01F0D8BDC1EBC102E3
:100FD00000EB8202D0F8FC03D2F8082201F031BE07
:100FE000704770B504460B0601F00F00C0EBC0015E
:100FF00004EB81014FF001024FF0000503D581F8A9
:101000003D203C3103E081F8FD5101F5FE7108708F
:1010100094F8BC03012808D084F8BC23206802F0AF
:101020008FF984F8BC53002070BD022070BD70B5EC
:10103000044601F00F006268904201D9012070BDA2
:101040000B0601F00F01C1EBC10104EB81014FF070
:1010500001024FF0000503D581F83D203C3103E04B
:1010600081F8FD5101F5FE718D70087094F8BC0394
:10107000012808D084F8BC23206802F0EBFA84F839
:10108000BC53002070BD022070BD01F00F01C1EB08
:10109000C10100EB8100D0F8140270472DE9F04146
:1010A00004460F0601F00F00C0EBC00104EB810104
:1010B0004FF001064FF0000503D581F83D603C314B
:1010C00003E081F8FD5101F5FE7108708A60CB7074
:1010D0004A7802B1C880022B00D10D7194F8BC038C
:1010E000012809D084F8BC63206802F093F82846F0
:1010F00084F8BC53BDE8F0810220FBE770B50C46D4
:1011000001F00F05C5EBC50100EB8101C1F8082214
:101110000022C1E9843281F8FD2181F8FC51006888
:1011200001F5FE71220703D002F0ECFA002070BD39
:1011300002F0F8F9FAE770B504460D4601F00F0029
:101140006168884201D9012070BD29064FF0000670
:101150004FF0010207D5C0EBC00104EB810181F81B
:101160003D203C3107E0C5EBC50104EB810181F86E
:10117000FD6101F5FE718A70087094F8BC030128C6
:1011800007D084F8BC23206802F090FA280702D028
:1011900006E0022070BD04F57171206802F038FA93
:1011A00084F8BC63002070BD70B50C4601F00F05DB
:1011B000C5EBC50100EB81018A640022C1E914324C
:1011C000012281F83D2001F83C5F0068220703D02E
:1011D00002F098FA002070BD02F0A4F9FAE70000CE
:1011E0002DE9F05F05680446284602F089FB0028D7
:1011F0007ED1206802F0B0FB002879D0206802F090
:10120000ABFB800704D52068416901F00201416110
:10121000206802F0A1FB00034FF001094FF0080B1A
:1012200061D50026206802F076FB0746DFF89CA314
:1012300057E0F80753D0F1B2206802F085FB8046F2
:10124000C0071BD005EB4611C1F8089B216820465A
:101250000B6C01EB4612D2F8081B53450BD10B0463
:1012600004D54FF40040C2F8080B07E0890602D508
:101270002021C2F8081BF1B2FFF7A8FE5FEA087050
:1012800014D52068016C00EB4612D2F8080B5145CA
:1012900005D1000403D54FF40040C2F8080B2046E6
:1012A00000F04FFA05EB4610C0F808BB5FEAC860D3
:1012B00004D505EB46101021C0F8081B5FEA8860D2
:1012C00004D505EB46102021C0F8081B5FEA8840D2
:1012D00005D505EB46104FF40051C0F8081B7F08F8
:1012E000761C002FA5D1206802F036FB400300E0F9
:1012F0006AE149D5206802F007FB0746002641E075
:10130000F8073DD0F1B2206802F00CFB8046C00720
:1013100010D006F00F0209FA02F0D5F83428824303
:10132000C5F8342805EB4610C0F80899F1B22046FC
:10133000FFF743FE5FEA087003D505EB4611C1F8DD
:1013400008B95FEAC86004D505EB46111020C1F862
:1013500008095FEA486004D505EB46104021C0F853
:1013600008195FEA887004D505EB46100221C0F821
:1013700008195FEA086003D53146204600F094FF63
:101380007F08761C002FBBD1206802F0E5FA002808
:101390000DDAD5F8040820F00101C5F8041820463C
:1013A00000F0B3F92068416901F000414161206813
:1013B00002F0D2FA00050BD5D5F80808C00702D014
:1013C000204600F0FEF92068416901F400614161A6
:1013D000206802F0C1FAC10404F5717859D5D5F836
:1013E000040820F00101C5F804181021206802F05B
:1013F00069FA00214FF67F3213E000BF05EB411080
:10140000C0F80829D0F8003923F40013C0F80039D7
:10141000C0F8082BD0F8003B23F40013C0F8003BC1
:10142000491C60688842E9D8D5F81C0840F00111D1
:10143000C5F81C18206B002828460DD0D0F8840869
:1014400040F00B01C5F88418D5F8440840F00B01B2
:101450002846C5F844180DE0D0F8140842F22B01D4
:101460000843C5F81408D5F8100840F00B012846C9
:10147000C5F81018D0F8000820F4FE61C5F800186F
:101480004146206802F0C4F82068416901F48051A7
:101490004161206802F060FA800415D5206801F0EF
:1014A000F9FE206802F020FAE06000F0E9FA014657
:1014B000227B206802F08AFA204600F019F92068A1
:1014C000416901F400514161206802F045FAC0060B
:1014D00034D52068816921F0100181612F6A07F0FD
:1014E0000F00C0EBC00004EB8006C7F3434006F5D5
:1014F000FE76022802D0062811D01AE047F6F070D6
:10150000074216D0C7F30A1217462846F16802F0C0
:1015100027FAF0683844F060B069384408E00822DF
:101520004146284602F01CFAB069C7F30A11084484
:10153000B0612068816941F010018161206802F08A
:101540000BFA000707D5204600F0E3F82068416950
:1015500001F008014161206802F0FEF9C00208D5DF
:101560000021204600F034F82068416901F4801120
:101570004161206802F0F0F9800208D50021204680
:1015800000F027F82068416901F4001141612068EA
:1015900002F0E2F9400007D52046FFF70DFD206874
:1015A000416901F080414161206802F0D5F94007AE
:1015B0000AD520684568680702D52046FFF710FD68
:1015C0002068416829434160BDE8F09F0A31544FCB
:1015D000704770472DE9F0418AB0040005D094F8B7
:1015E000BD032668002520B108E001200AB0BDE84F
:1015F000F08184F8BC53204600F05EF8032084F8A4
:10160000BD03F06BC00500D42561206801F084FFA4
:1016100004F11001282288466846FEF7F6FD94E89A
:101620000F0001F045FE0226C8BB0021206802F031
:10163000A5F9002001270EE0C0EBC00104EB8101F9
:1016400081F83D7001F83C0FC880CD708D60CD6091
:10165000401CC0B24D6161688142EDD8002011E0AC
:10166000C0EBC00104EB810181F8FD5181F8FC0160
:1016700081F8FF51C1F80452C1F80852401CC0B2B1
:10168000C1F8105261688142EAD828224146684672
:10169000FEF7BBFD94E80F0001F0AAFE10B184F83C
:1016A000BD63A2E784F8385084F8BD73206801F068
:1016B00093FE00209AE7000008B50068B0F1A04F43
:1016C00012D10A48416941F48051416140690022C8
:1016D00000F48050009011464320FFF703FCBDE862
:1016E00008404320FFF7F0BB08BD00000010024097
:1016F00010B50446D0F8FC03012101F06EFBD4F8CC
:10170000FC03BDE8104001F02ABBD0F8FC0301F057
:101710004EBBD0F8FC0301F054BB10B5044690F862
:10172000BC0301280BD0012084F8BC0384F83810D6
:10173000206802F03AF9002084F8BC0310BD0220B2
:1017400010BD2DE9F04100F57171D0F8FC4305465C
:1017500004F52A700F46064601F094FB94F8A8128F
:101760000020C90603D13146204600F0C7FF94F897
:10177000A81201F01F01012903D13146204600F0D3
:10178000DFFF002806D13946D5F8FC03BDE8F0415B
:1017900001F02DBBBDE8F08110B5044690F8BC0304
:1017A00001280CD0012084F8BC03206801F008FE59
:1017B000206802F071F8002084F8BC0310BD0220FC
:1017C00010BDD0F8FC0301F04DBB00002DE9F8433B
:1017D000044600785B4DC0074FF0010951D0E8691D
:1017E0000026C00008D4E86940F08050E861E8694C
:1017F000012600F08050009053480168C90512D4BA
:101800000168804641F480710160FFF7FFFA0746E6
:1018100005E000BFFFF7FAFAC01B642877D8D8F8B4
:101820000000C005F6D5286A10F440701ED0A188CB
:1018300001F44071814219D0286A444920F4407073
:10184000C1F8009000220A602862C0070ED0FFF79E
:10185000DDFA074641F2883805E000BFFFF7D6FA07
:10186000C11B414553D8286A8007F7D5286A6168AB
:1018700020F44070084328621EB1E86920F08050CF
:10188000E8612078800705D56868A16820F44040A9
:10189000084368602078400705D5E86AE16820F4CD
:1018A00000300843E8622078000705D5E86A21691E
:1018B00020F480200843E862E86A800302D4E86AE2
:1018C000400333D52868C00028D42868400105D5D6
:1018D000E86AA16900F0F000884225D1E86AA169B0
:1018E00020F0F0000843E862E86A616920F4704083
:1018F0000843E8621649C1F87090FFF787FA064678
:1019000008E004E0FFF782FA801B642802D9032074
:10191000BDE8F88328688000F4D507E0E86A6169CB
:1019200000F47040884201D00120F1E72078C00621
:1019300005D56868E16920F48000084368600020EC
:10194000E6E7000000100240007000404004424200
:10195000000042422DE9F0470F46050061D0434E9A
:10196000306800F00700B84209D2306820F0070064
:1019700038433060306800F00700B84251D1286821
:101980003B4C810712D5400703D5606840F4E06006
:1019900060602878000703D5606840F4605060609C
:1019A0006068A96820F0F000084360602878C007EC
:1019B00028D06868012810D02168022810D0890733
:1019C00000292EDA616821F0030101436160FFF70D
:1019D0001DFA804641F288390DE021688903EFE75E
:1019E0008901EDE7FFF712FAA0EB0801494502D99A
:1019F0000320BDE8F0876068696800F00C00B0EB78
:101A0000810FEFD1306800F00700B8420BD9306881
:101A100020F0070038433060306800F00700B8421B
:101A200001D00120E5E72878400705D56068E9681E
:101A300020F4E060084360602878000706D56068FD
:101A4000296920F4605040EAC100606000F01EF88F
:101A50006168084AC1F30311515CC8400649086037
:101A600006480068FFF7F2F90020C2E700200240B4
:101A700000100240AC4500088C01002084010020C9
:101A800001480068704700008C010020F0B524A2D6
:101A900089B00FCA04AC84E80F0025A10FC98DE8F6
:101AA0000F002748416801F00C02042A04D0082ADC
:101AB00004D0244809B0F0BD2348FBE704AAC1F3D1
:101AC0008343C903D45C28D5C16AC26A01F00F01FF
:101AD0001DF80110D20316D5C26AC06AC2F3031200
:101AE000521CA2FB0123C0F30320801CA0FB0415A1
:101AF000154F0026A1FB070C05FB07C501FB06518E
:101B0000FEF742FB03E010486043B0FBF1F09DF8A4
:101B10001D10A142CED14008CCE70C486043C9E774
:101B2000000004050607080900000000000D000081
:101B30000102030405060708090A0B0C0D0E0F101D
:101B40000010024000127A0040787D0100093D003B
:101B50002DE9F84F040070D02078F14DC00749D02E
:101B60006868C0F38100012807D06868C0F381006D
:101B7000022809D16868C00306D52868800339D5D2
:101B8000A0680028E7D035E0A068B0F5803F0BD012
:101B900010B1B0F5A02F11D0286820F48030286053
:101BA000286820F4802002E0286840F48030286013
:101BB000A06890B1FFF72AF906460AE0286840F4C9
:101BC00080202860F0E700BFFFF720F9801B642821
:101BD00076D828688003F7D50CE0FFF717F906469A
:101BE00005E000BFFFF712F9801B6428F0D82868D1
:101BF0008003F7D42078CB4E80074FF001094FF0D7
:101C000000073AD5686810F00C0F07D06868C0F379
:101C10008100022809D16868C00306D428688007BB
:101C200015D56069012808D111E06069B8B1C6F81E
:101C30000090FFF7EBF8804606E042E1FFF7E6F898
:101C4000A0EB08000228C3D828688007F6D52868CA
:101C5000A16920F0F80040EAC10028600DE037607B
:101C6000FFF7D4F8804605E0FFF7D0F8A0EB0800B6
:101C70000228ADD828688007F6D4207800072ED532
:101C8000A948E169E9B1C0F80090FFF7BFF88046C4
:101C900006E000BFFFF7BAF8A0EB0800022897D8CB
:101CA000686A8007F6D5A1484FF4FA510068B0FB86
:101CB000F1F0009000BF0098411E0091FAD20EE0B2
:101CC000B0E00760FFF7A2F8804605E0FFF79EF856
:101CD000A0EB0800022889D8686A8007F6D420782B
:101CE000400763D5E8694FF00008C00009D4E869EF
:101CF00040F08050E861E8694FF0010800F0805042
:101D000000908B480168C90512D40168834641F4EC
:101D100080710160FFF77AF8824605E0FFF776F8F8
:101D2000A0EB0A0064287DD8DBF80000C005F5D5DB
:101D3000206901280AD008B1052813D0286A20F0AC
:101D400001002862286A20F0040002E0286A40F0BE
:101D500001002862206941F2883B98B1FFF756F8EC
:101D600082460BE0286A40F004002862EEE700BFDC
:101D7000FFF74CF8A0EB0A01594553D8286A8007B1
:101D8000F6D50CE0FFF742F8824605E0FFF73EF893
:101D9000A0EB0A01594545D8286A8007F6D4B8F166
:101DA000000F03D0E86920F08050E861E06AD0B30A
:101DB0006968C90307D56968C1F38101022902D1A5
:101DC000E96AC9037DD4022808D0E86A20F480308B
:101DD000E862B766FFF71AF880463BE02868C00063
:101DE00005D5E86A616B00F0F000884269D1B766FA
:101DF000FFF70CF8804605E0FFF708F8A0EB0800B5
:101E0000642874D828680001F6D4E86A616B20F071
:101E1000F0000843E862E86A216B20F47060084330
:101E2000E86201E063E018E0C6F86890FEF7EEFFB4
:101E3000804605E0FEF7EAFFA0EB0800642856D8CC
:101E400028680001F6D508E0FEF7E0FFA0EB0800E7
:101E500064284CD828680001F6D4206A90B36968D9
:101E6000C1F38101022949D00228376603D0FEF769
:101E7000CDFF04463EE0FEF7C9FF074605E000BF80
:101E8000FEF7C4FFC01B022831D828688001F7D4B0
:101E9000606AB0F5803F09D1E86A61680843E8628A
:101EA000E86AE16820F00F000843E862D4E909011C
:101EB0000843696821F4741108436860C6F86090AB
:101EC00001E028E029E0FEF7A1FF044605E000BF9D
:101ED000FEF79CFF001B022809D828688001F7D56F
:101EE0001BE000BFFEF792FF001B022802D903206F
:101EF000BDE8F88F28688001F4D40EE00128F7D0FF
:101F00006868626A00F48031914204D1A16A00F4E9
:101F10007010884201D00120EAE70020E8E70000C5
:101F20000010024000004242800442428C01002026
:101F30000070004010B5401EB0F1807F01D3012039
:101F400010BD4FF0E02460610F21601701F0C3FD68
:101F50000020A06107202061002010BD70B590F81E
:101F60003C20012A19D0012400F83C4F0222427083
:101F700050F83C3C5A689D6822F070060A6849682F
:101F8000324325F0800529435A6050F83C2C91607B
:101F9000447000210170084670BD022070BD10B56C
:101FA000040003D094F83D0010B107E0012010BDFB
:101FB000002084F83C00204600F00CF8022084F851
:101FC0003D00211D206800F027FA012084F83D0023
:101FD000002010BD08B50068B0F1804F08D1054859
:101FE000C16941F00101C161C06900F001000090C8
:101FF00008BD000000100240022180F83D10016879
:102000008A6802F00702062A03D00A6842F0010239
:102010000A60012180F83D100020704770B5044629
:1020200090F83C00012817D0012584F83C5002208C
:1020300084F83D002068826822F0770222F47F4213
:1020400082600868502830D00DDC20284DD005DC97
:1020500098B310283BD148E0022070BD302844D00E
:10206000402834D139E0602828D0702806D0B0F557
:10207000805F2CD0B0F5005F29D10AE0CB68D1E9B0
:102080000121206800F006FA2068816841F077019C
:1020900009E0CB68D1E90121206800F0FBF9206854
:1020A000816841F48041816011E0CA684968206814
:1020B00000F002FA5021206807E016E0CA6849687B
:1020C000206800F00AFA6021206800F0EDF984F839
:1020D0003D50002084F83C0070BDCA684968206803
:1020E00000F0EAF940212068EFE722680146104637
:1020F000EBE7FEE70A4809494FF4A02201600921F5
:10210000416000218160C0E903124161017641769E
:102110008176C17601774177FEF7F6BA0064004018
:102120009C0100200A4809494FF4A02201600921BE
:10213000416000218160C0E903124161017641766E
:102140008176C17601774177FEF7DEBA00680040FC
:10215000C40100202DE9F04786B0002535480095E0
:10216000019502950395816941F0100181618169B2
:1021700001F010010491816941F0200181618169C0
:1021800001F020010491816941F0040181618169BC
:1021900001F004010491816941F0080181618069C5
:1021A000DFF8949000F008000490012215214846C1
:1021B000FEF726FEDFF884A04FF4007801224146A6
:1021C0005046FEF71DFE4FF6EA700324CDE90004E9
:1021D00069464846FEF724FD152001260227CDE971
:1021E0000006CDE9025769464846FEF719FD48F258
:1021F000FF50CDE9000469465046FEF711FD4CF64C
:10220000FF40CDE9000469460D48FEF709FDCDF811
:1022100000800397CDE9016569465046FEF700FD51
:102220000420CDE9000469460648FEF7F9FC06B033
:10223000BDE8F08700100240001001400008014096
:10224000000C01400014014010B586B00024114874
:10225000009401940294039404944FF080410594F7
:1022600001604721C0E901144FF6FF71C0E9031472
:102270008461FFF794FE4FF4805000906946054852
:10228000FFF7CCFE049404A902480594FFF766FE0C
:1022900006B010BDEC010020FEE770470148FEF7D4
:1022A0009FBF0000640500202DE9F0470E46C1EBFA
:1022B000C60100EB81040568D4E914103C3488425F
:1022C00002D90120BDE8F087081AA168814200D236
:1022D0000846C01C870805EB461817E0A0EB01096B
:1022E000A068484500D2814609F1030087081FFA1B
:1022F00089F3F2B22846E16801F0DCFBE16801EB0A
:102300000900E060A16901EB0900A061D8F8180993
:1023100080B2B84205D3D4E90501814201D2002838
:10232000DCD1D4E90501884208D806F00F0101206C
:102330008840D5F834188143C5F834180020C1E727
:1023400070477047FEF768BD30B59BB038216846CE
:10235000FDF774FF14210EA8FDF770FF202113A8CC
:10236000FDF76CFF012420040421CDE902010225C0
:10237000CDE908500094019005944FF4E010CDE9A8
:102380000A054FF4C0600C9040200D906846FFF79E
:10239000DFFB0F20CDE90E050025A002CDE910508E
:1023A00002210EA81295FFF7D5FA102013901A9566
:1023B00013A8FFF70BFA024804671BB030BD0000FA
:1023C000000042421048016841F00101016041688B
:1023D0000E4A1140416001680D4A114001600168D8
:1023E00021F480210160416821F4FE01416001680F
:1023F00021F0A05101604FF47F0181600021C16292
:102400000449C00308607047001002400000FFF05C
:10241000FFFFF6FE08ED00E0F0B50268194B1A4C1C
:102420001A4D1B4E4FF08047984207D0B84205D056
:10243000A04203D0A84201D0B04204D122F0700CD7
:102440004A6842EA0C02984207D0B84205D0A0423E
:1024500003D0A84201D0B04203D122F44074CA682C
:1024600022434C6922F08002224302608A68C262E1
:102470000A688262984201D10969016301214161C0
:10248000F0BD0000002C01400004004000080040A6
:10249000000C004010B5846842EA032224F47F4413
:1024A0000A432243826010BD826822F070020A4310
:1024B00042F007018160704710B5036A046A24F096
:1024C00001040462846924F0F00444EA021423F055
:1024D0000A020A438461026210BD10B5036A23F048
:1024E000100303628369046A23F4704343EA0232EF
:1024F00024F0A00343EA01118261016210BD10B50E
:10250000D0F8B42252689047002010BD134610B591
:102510000A46002100F01CFC002010BD134610B537
:102520000A46002100F0A7FC002010BD10B50446AB
:10253000802100F089FC2046BDE81040002100F019
:1025400083BC10B50323C0F85C21C0F89432C0F8F6
:10255000602113460A46002100F0FAFB002010BD5E
:1025600010B505210023C0F894121A46194600F050
:10257000EFFB002010BD10B50223C261C0F89432F9
:10258000026213460A46002100F075FC002010BDCF
:1025900010B504210023C0F894121A46194600F021
:1025A0006AFC002010BD000010B50A46024903A0D5
:1025B00000F09DFA004810BD6409002063616E645C
:1025C0006F5F75736220636F6E666967000000005D
:1025D00012200880004870476801002010B50A46A4
:1025E000024903A000F083FA004810BD64090020EE
:1025F00063616E646F5F75736220696E7465726685
:102600006163650004200880004870476401002071
:1026100010B50A46024903A000F069FA004810BD4F
:10262000640900204142460010B50A46024903A051
:1026300000F05DFA004810BD6409002043616E643B
:102640006F5F32636800000010B50D480C4688B01B
:102650000168684601F044FC0948001D016802A8B1
:1026600001F03EFC06480830016804A801F038FC7F
:1026700022460449684600F03AFA08B0014810BD05
:10268000E8F7FF1F6409002070B50646D0F8B8428D
:1026900048780D460A2828D2DFE800F0050505270E
:1026A000170F1F052705286860646868A064EA881A
:1026B00021463046FFF745FF1BE00F4801682160C7
:1026C000416861608068A06005E00B4928220C31F8
:1026D0002046FDF79AFDEA8802E0A06E0422206001
:1026E00021463046FFF747FF03E029463046FFF713
:1026F0001DFF002070BD00007845000810B54A7825
:10270000202A0ED18A88042A02D0052A09D106E09F
:10271000CA880A4B2824282A0BD9224609E04A886D
:102720000AB1002010BD054BCA8828339224922A92
:10273000F3D81946FFF71FFF012010BD8C000020C1
:10274000FFF7DCBFD0F8B8020021016408467047EB
:102750002DE9F04107460226D0F8B84200F0B2FA5F
:1027600014280AD3206D01F084FE050005D0D4E9B9
:10277000150101F0ABFE0026A565384600F0B6F85D
:102780003046BDE8F08110B50446812100F0EFF934
:102790000221204600F0EBF9002010BDF8B5D0F87A
:1027A000B84204F14405687838B10121012848D0C5
:1027B000022818D0072857D102E02068E06453E0CF
:1027C0006988206804EB8101CC6D30B14FF0FF3295
:1027D0002749206801F0B0FB46E0204601F016FAD8
:1027E000014620682AE0688802283DD204EB800078
:1027F000C66D206810B1012806D035E0304601F0E2
:1028000089F90021306819E02079C0F3001084F8BC
:1028100064006068C0F3C01284F86C20154AC305D8
:1028200000D500211170C0F3C00300F00102C0F315
:102830004001304601F074F90121306801F08DFB50
:1028400012E00D484161688802280DD2217B009179
:102850002278217904EB80001144CAB2218A237ABC
:1028600089B2C06D01F0CCFAFF2068700020F8BD7D
:1028700051000020000000200010014020210180B4
:102880000048704758000020D0F8B80290F8640063
:1028900008B10220704701207047000010B5EE29F2
:1028A00005D000211180FFF741FE002010BD12204D
:1028B0001080014810BD0000780000202DE9F04193
:1028C0000F4605461646022470210120FDF7C1FC83
:1028D000002130B1C0E91476C5F8B8020024816542
:1028E00001E0C5F8B8122046BDE8F081D0F8B81272
:1028F00018238A6D022100F02BBA4FF08041D0F8E6
:10290000B802496A81660020704730B50546D0F8A4
:10291000B80289B0182490F8642002B9142490F801
:102920006C0058B122466846FDF76FFCC4F12001E7
:102930000DEB0400FDF782FC694620242246284660
:1029400000F040F809B030BDD0F8B802002804D03B
:10295000022902D200EB8100C265704710B50A78E7
:1029600012F0600207D0202A01D0402A0AD1BDE827
:102970001040FFF789BE49780A2903D10122024994
:10298000FFF7F9FD002010BD5000002070B505468E
:102990000220D5F8B842002C13D020230222812136
:1029A000284600F0CBF9022220231146284600F0E9
:1029B000C5F9206D01F045FDA0652846FFF796FF9B
:1029C000002070BD10B51346D0F8B822146C0CB1BD
:1029D000012010BD012414640A46812100F04BFA45
:1029E000002010BDD0F8B802006C08B1002070477C
:1029F00001207047F8B504460020ADF80000488873
:102A00000D46010A082951D2DFE801F050040917E8
:102A10005050454ED4F8B012207C0A6819E0207C52
:102A200002260028D4F8B40205D0C16A6846884757
:102A30000146467047E0816AF8E7C1B2062921D213
:102A4000DFE801F0030A1014181CD4F8B002426841
:102A500005E06946904725E0D4F8B00282682AB3C1
:102A6000207CF6E7D4F8B002C268F8E7D4F8B002E8
:102A70000269F4E7D4F8B0024269F0E7D4F8B00292
:102A80008269ECE7D4F8B4128B6B7BB1C1B26A46B1
:102A90002046984706E0207C40B9D4F8B402416B48
:102AA0006846884701460EE0207C20B12946204632
:102AB000FFF73CFDF8BDD4F8B402016B68468847C7
:102AC000014607204870BDF8000048B1EA8852B1BD
:102AD000824200D90246ADF800202046FFF74BFDA8
:102AE000E8880028E6D12046FFF752FDF8BD70B512
:102AF000002300281ED00446002502E06D1CEDB224
:102B0000641C2678002EF9D1022404EB45041480BD
:102B10001278CA545B1C0322CA5400245B1C06E0D2
:102B2000CA545B1CDAB28C54521CD3B2401C0278DB
:102B3000002AF5D170BD10B580B1D0F8B43213B110
:102B40000023C0F8B43209B1C0F8B012012180F8F6
:102B50009C12027000F0BAF8002010BD022010BDD7
:102B600010B5D0F8C002FEF762FA002010BD10B513
:102B7000D0F8C002FEF735FA002010BD2DE9F04173
:102B80001746044651B1D4F8B40242691AB194F818
:102B90009C02032851D00220BDE8F081D4F8943281
:102BA000002504F11400022B03D0042B3AD0C3B348
:102BB0003CE0D0E903639E4207D9F11AC1608AB2B2
:102BC00039462046FFF7AAFC12E08068B0FBF3F11B
:102BD00003FB110199B9984211D3D4F89812884295
:102BE0000DD2002211462046FFF798FCC4F89852F7
:102BF00000231A461946204600F0AAF816E0D4F839
:102C0000B402C16829B194F89C02032801D120467E
:102C100088478021204600F017F92046FFF7A0FCE6
:102C200004E0FFE78021204600F00EF994F8A002AE
:102C3000012804D184F8A05201E0204690470020EA
:102C4000AAE770B51546044649B1D4F8B4028269C2
:102C50001AB194F89C02032830D0022070BDD4F839
:102C6000941204F5AA70032902D005291ED027E08A
:102C7000D0E903218A420BD9531AC3600846834224
:102C800000D303469AB229462046FFF73FFC17E0DF
:102C9000D4F8B402016929B194F89C02032801D147
:102CA000204688472046FFF773FC09E000200146D4
:102CB000C4F89402204600F0C7F801E0204690478F
:102CC000002070BDD0F8C002FEF7DFB9124910B580
:102CD000C1F8FC03C0F8C0124FF0A0400860022207
:102CE0000320CA6048600020C1E90502086248620A
:102CF0000846FEF76FFC80210748FEF737F93022BF
:102D000000210548FEF736F9802201210248FEF72E
:102D100031F9002010BD0000640500200A0601F012
:102D20007F01D0F8C002C1EBC10100EB810002D5E8
:102D300090F83E00704790F8FE01704710B51C46B1
:102D40001346D0F8C0022246FEF7A8F9002010BDB5
:102D500010B5D0F8C002FEF7D1F9002010BD70B553
:102D60000022044640231146FFF7E8FF40260125D4
:102D7000C4F864613346002280212046C4F85851CB
:102D8000FFF7DCFF6662A56184F89C520020C4F85E
:102D900094026060C4F8A402D4F8B80228B1D4F850
:102DA000B4020021426820469047002070BD90F890
:102DB0009C12042903D190F89D1280F89C120020E7
:102DC000704710B590F89C12032904D1D0F8B412C2
:102DD000C96901B18847002010BD01740020704707
:102DE00010B5D0F8C002FEF798FC002010BD70B5F9
:102DF000044600F52A70054600F044F80120C4F8A6
:102E00009402B4F8AE02C4F8980294F8A80210F044
:102E10001F010AD001290DD0022910D000F0800135
:102E2000204600F011F8002070BD2946204600F031
:102E300098F8F8E72946204600F0C4F9F3E7294658
:102E4000204600F017F9EEE710B5D0F8C002FEF703
:102E500072F9002010BD10B5D0F8C002FEF79CFC3E
:102E6000002010BD90F89C1280F89D12042180F87B
:102E70009C120020704710B5D0F8C002FEF794F9FC
:102E8000002010BD0A7802704A7842708A78CB78A8
:102E900002EB032242800A794B7902EB0322828003
:102EA0008A79C97902EB0121C1807047024600206E
:102EB00011B1C2F8B41270470220704710B5D0F8B3
:102EC000B42202241AB11268904700B900242046A7
:102ED00010BD000070B50E461E4D8978044629705D
:102EE000012931D894F89C0202280BD003280FD076
:102EF00031462046FFF71AFB29782046BDE870408E
:102F0000FFF7FDBAD9B10320616084F89C0209E0A3
:102F100071B16068884212D0C1B22046FFF7EFFA63
:102F2000297861602046FFF7C9FF02280CD006E02F
:102F3000022084F89C0220466160FFF7E0FA2046F8
:102F4000BDE87040FFF724BB31462046BDE8704025
:102F5000FFF7ECBA9001002010B5FFF77CFF0020CE
:102F600010BD2DE9F0410A784FF0000812F0600220
:102F700008D0202A01D0402A6FD1D0F8B42292681C
:102F800090476CE04B780022012502260A2B64D280
:102F9000DFE803F03F5B6355630805632B28FFF709
:102FA00029FD5CE004468888D0B9C888C0B9488843
:102FB000802815D200F07F0794F89C0203280FD0D8
:102FC00084F89E7239462046FFF70AFF2046FFF735
:102FD000DFFA17B184F89C6241E084F89C523EE02D
:102FE00020463AE0FFF776FF39E0CB88012B34D159
:102FF00090F89C32012B04D0022B02D0032B2CD151
:1030000004E08260012200F1080115E00122011DA7
:1030100012E090F89C32012B03D0022B01D0032B3D
:103020001BD1CB88022B18D1C260D0F8A41201B1F9
:10303000C660022200F10C01FFF79DFA0FE04988FB
:1030400001290CD1C0F8A45211E090F89C32012B58
:1030500008D0022B06D0032B04D0FFF767FA4046B6
:10306000BDE8F08149880129F9D1C0F8A422FFF711
:103070008FFAF4E72DE9F0410A460446107800275C
:10308000097910F060030AD0202B01D0402B50D1D9
:10309000D4F8B40211468368204698478FE0C0F305
:1030A0004110012806D05078D0B301282AD0032837
:1030B0003FD107E0D4F8B402114683682046BDE84A
:1030C000F041184794F89C02022802D0032872D1DC
:1030D0000AE071B380296ED02046FFF7B5FE80214B
:1030E0002046FFF7B1FE6AE0508838B931B1802937
:1030F00004D0D08810B92046FFF7A6FE2046FFF77F
:1031000047FA5CE094F89C020228E2D0032852D1EE
:10311000508898BB4806F1D02046FFF721FDEDE727
:10312000FFE794F89C020026022803D0032842D12E
:1031300012E040E009B180293DD1080601F07F008E
:1031400000EB800004EB800101D5143101E001F5B2
:10315000AA7102220E602AE0080601F00F0000EBBF
:10316000800004EB80000AD5806920B301F07F0065
:1031700000EB800004EB800514350BE01FE0D0F875
:103180005801C0B101F07F0000EB800004EB800526
:1031900005F5AA7541B1802906D02046FFF7BEFD8E
:1031A00010B10120286000E02E600222294620464E
:1031B000FFF7E1F903E011462046FFF7B7F938467B
:1031C000BDE8F08170B5054608780C4610F0600047
:1031D00003D0202801D0402816D195F89C02012860
:1031E00003D0022801D003280ED1207901280BD862
:1031F000D5F8B402826828469047E188014306D199
:103200002846FFF7C5F902E02846FFF78FF90020AE
:1032100070BD000070B50A78012302F00F054E78EA
:10322000AB401B4CD0F81C58012E17D045EA034385
:10323000C0F81C3800EB4210D0F8002B12040BD45D
:10324000D0F8002B0B89C978C3F30A031A4344EA68
:1032500081410A43C0F8002B002070BD9BB21D4382
:10326000C0F81C5800EB4210D0F800391B04F3D40E
:10327000D0F800390D89C978C5F30A0589042B43B4
:1032800041EA82510B432343C0F80039E4E70000D0
:1032900000800010D0F800196FF30A01C0F800197F
:1032A000D0F8041841F48071C0F804180020704769
:1032B00010B5044604990B9801290BD0E06840F042
:1032C0004000E060204600F01FF8A16B41F480311F
:1032D000A16310BDA16B21F48031A163E168094AAB
:1032E0001140E160E16821F44011E160012803D15F
:1032F000E06840F48010E0602046BDE8104000F037
:1033000003B80000BFFFBDFF01220C4902E0521CC0
:103310008A420BD80369002BF9DA026942F00102F4
:103320000261012204E0521C8A4201D90320704745
:103330000369DB07F7D1002070470000400D030050
:1033400030B50B784D78012203F00F0402FA04F433
:10335000012DD0F83C5817D025EA0444C0F83C4869
:10336000D0F81C48097801F00F018A4024EA024194
:10337000C0F81C1800EB4310D0F8001B0E4A114097
:10338000C0F8001B002030BDA4B2A543C0F83C58D3
:10339000D0F81C48097801F00F018A4091B28C43A3
:1033A000C0F81C4800EB4310D0F80019034A114044
:1033B000C0F80019E6E700000078F3EF007833EC7E
:1033C00010B5D0F8041821F00201C0F80418032049
:1033D000FDF7A4FA002010BD10B5D0F8041841F094
:1033E0000201C0F804180320FDF798FA002010BD70
:1033F0002DE9F04700260446DDF83CA0DDF82C90CE
:103400000F463046354600BF04EB8001C1F8045139
:10341000401C0F28F8D3A06B40F400212046A16384
:10342000C4F8005ED4F80018C4F80018D4F80018E6
:1034300041F00301C4F80018102100F043FA00B174
:103440000126204600F02EFA00B10126C4F81058DB
:10345000C4F81458C4F81C5800204FF000634FF013
:1034600090484FF67F3214E004EB4011D1F800C9C8
:10347000BCF1000F06DA10B1C1F8008904E0C4F80D
:10348000003901E0C1F80059C1F81059C1F8082904
:10349000401C8742E8D8002015E000BF04EB401133
:1034A000D1F800CBBCF1000F06DA10B1C1F8008BE7
:1034B00004E0C4F8003B01E0C1F8005BC1F8105B18
:1034C000C1F8082B401C8742E8D8D4F8100820F433
:1034D0008071C4F81018A5616FF080406061A06928
:1034E00040F01000A061A06909490843A061B9F14A
:1034F000000F03D0A06940F00800A061BAF1010FED
:1035000003D1A06903490843A0613046BDE8F087B4
:1035100000383C8004000040816821F00101816096
:103520000020704730B50C784D78384BE2B200EB94
:103530004212012D24D0D2F8100B6FF31200C2F802
:10354000100BD2F8100B1840C2F8100B486908B1E4
:1035500088684861D2F8100B40F40020C2F8100BC4
:10356000D2F8100B8968C1F312010843C2F8100B9E
:10357000D2F8000B40F00440C2F8000B002030BD30
:103580004D69002DD2F8105932D06FF31205C2F8F0
:103590001059D2F810591D40C2F810594D698B6866
:1035A0009D4200D94B61D2F8103943F40023C2F890
:1035B0001039D2F810394D69C5F3120553EA0503E5
:1035C000C2F8103900EB4412D2F8003943F004433A
:1035D000C2F800394A69002AD0D0D0F834280978D6
:1035E00001F00F03012199400A43C0F83428C5E7D0
:1035F0001D40C2F81059D2F8103943F40023C2F824
:103600001039D2F810396FF31203D9E7FFFF07E042
:10361000016C0F4A914203D9D0F8001B002914DB3A
:103620000021C0F8101BD0F8101B41F40021C0F895
:10363000101BD0F8101B41F01801C0F8101BD0F877
:10364000101B41F0C041C0F8101B00207047000063
:103650000A30544F4A780B78012A00EB43100BD004
:10366000D0F8002B22F40012C0F8002BC9780329EF
:1036700014D0022912D017E0D0F8002922F4001249
:10368000C0F80029C978032901D002290CD1D0F84B
:10369000001941F08051C0F8001905E0D0F8001B76
:1036A00041F08051C0F8001B002070470A784B7829
:1036B000D1B200EB4110012B12D0D0F8001B002931
:1036C00006DB2AB1D0F8001B21F08041C0F8001BB6
:1036D000D0F8001B41F40011C0F8001B0020704717
:1036E000D0F80019002906DB2AB1D0F8001921F022
:1036F0008041C0F80019D0F8001941F40011C0F859
:103700000019EBE770B50D784E78624BEAB26FF0B6
:10371000604400EB4212012E27D0D2F8105B6FF309
:103720001205C2F8105BD2F8105B1D40C2F8105BA6
:103730004D69002D73D08B681D446D1EB5FBF3F3EE
:10374000D2F8105B9BB204EAC3442543C2F8105B75
:10375000D2F8104B8D685D43C5F312031C43C2F8C9
:10376000104BC97801296FD08CE04E691EB3D2F896
:1037700010696FF31206C2F81069D2F810691E4082
:10378000C2F810694E698B681E44761EB6FBF3F3CF
:1037900004EAC343D2F810492343C2F81039D2F8DF
:1037A00010394C69C4F312042343C2F81039CB78A2
:1037B000012B10D01BE0D2F810491C40C2F8104970
:1037C000D2F8103943F40023C2F81039D2F8103976
:1037D0006FF3120309E0D2F8103923F0C043C2F8A6
:1037E0001039D2F8103943F00053C2F8103900EB09
:1037F0004512D2F8003943F00443C2F80039CB78BF
:10380000012B0DD04A697AB3D0F83428097801F039
:103810000F03012199400A43C0F8342838E014E02E
:10382000D0F80838DB05D2F8003902D443F0005351
:1038300001E043F08053C2F800398A8A93B20A78D3
:10384000C96800F037F923E00FE0D2F8103B8C682C
:10385000C4F312042343C2F8103BD2F8103B43F4E4
:103860000023C2F8103B7CE712E0D0F80808C0053E
:10387000D2F8000B02D440F0005001E040F080503C
:10388000C2F8000BD2F8000B40F00440C2F8000B65
:10389000002070BDFFFF07E0816841F001018160F9
:1038A00000207047002110220261054A491C914204
:1038B00001D9032070470369DB06F7D40020704765
:1038C000400D03000022202343EA811101610549D4
:1038D000521C8A4201D90320704703699B06F7D422
:1038E00000207047400D0300D0F8080800F00600E3
:1038F000022803D0062801D00F207047022070470D
:10390000406900F001007047D0F81818D0F81C0882
:10391000084080B27047D0F81818D0F81C0808404A
:10392000000C704710B5D0F81038D0F8342801F0EA
:103930000F0400EB4110E24002F00102D0F8080948
:1039400043EAC212104010BD00EB4111D1F8081B30
:10395000D0F81408084070474169806908407047F2
:10396000D21C10B59308002200F5805002E00468D4
:10397000521C10C19A42FAD3084610BD10B5C26855
:1039800022F0C042C260012902D029B1012010BD3D
:10399000C16841F0005102E0C16841F08041C1605E
:1039A0003220FCF7BBFF002010BDD0F8002822F425
:1039B000FE62C0F80028D0F800284FF4FE6303EA46
:1039C00001110A43C0F8002800207047022A2ED1B6
:1039D000264A274B0A449A4201D20F2138E0254A51
:1039E000254B0A449A4201D20E2131E0234A244B4E
:1039F0000A449A4201D20D212AE0224A224B0A446B
:103A00009A4201D20C2123E0204A214B0A449A42D7
:103A100001D20B211CE01F4A1F4B0A449A4201D2DB
:103A20000A2115E01D4A1E4B0A449A4201D209217F
:103A30000EE01C4A1C4B0A449A4201D2082107E0BE
:103A40001A4A11441A4A914201D2072100E0062184
:103A5000C26822F47052C260C2684FF4705303EA25
:103A600081210A43C260002070470000405327FFB5
:103A700000350C00401E1BFF40420F0000DC0BFF16
:103A8000804F1200808CF9FE20D6130060B6E5FE50
:103A900060E3160000D3CEFE40771B00C05BB3FE90
:103AA000C091210000CA91FE20753800E05459FEF3
:103AB000E09C410010B5DB1C9C0800EB02300023A9
:103AC00000F5805002E004C902605B1CA342FAD3F7
:103AD000002010BDFEE70907090E002804DB00F1F5
:103AE000E02080F80014704700F00F0000F1E020A3
:103AF00080F8141D704702E008C8121F08C1002A90
:103B0000FAD170477047002001E001C1121F002A5E
:103B1000FBD170474068016841F0010101607047C6
:103B2000F0B5446803B11023857A1C4E1C4F06EB98
:103B30000546057B43F045036D1E46EA0565C67ADA
:103B4000008907EB06563543401E054311B14FF07F
:103B5000804000E00020054312B14FF0004000E03B
:103B600000200543206840F40040206020680004E5
:103B7000FCD460688007FCD5206840F0010020601C
:103B80006068C007FCD02360E561206820F0010078
:103B900020606068C007FCD1F0BD00000000FFFF9E
:103BA0000000F0FF4068806970470000F0B50546EE
:103BB0008BB000200E461249012417468E42009019
:103BC00001900290039007D1CDE90604049005907E
:103BD00069460C48089407E00E21CDE90604CDE9BA
:103BE0000401694608480894FCF708FDC5E9007619
:103BF000092028810620A872EC722C730BB0F0BD4E
:103C0000006400409C010020C4010020406800685E
:103C100040F30000401C70474068C068800700D037
:103C20000120704710B54FF0FF331360344B5360E1
:103C3000082313720023137353739373D373137492
:103C400053749374D3744C0702D52D4C4034546094
:103C50000C0C94740C0ED4744468E468E40607D524
:103C6000012393724068C36823F01003C36000E02F
:103C70009372880703D5507B40F0300004E0C807FA
:103C800003D0507B40F00C005073C1F3021060B3BE
:103C9000072833D2DFE800F032040C1419212A007F
:103CA000506840F008005060907B40F004001BE03A
:103CB000506840F008005060907B40F0020013E034
:103CC000506840F02000506018E0506840F0080054
:103CD0005060907B40F0100006E0506840F0080013
:103CE0005060907B40F00800907307E0506840F00F
:103CF00008005060D07B40F00800D073012010BD58
:103D00000400002010B54368FFF786FF002832D07A
:103D100003F5D87210684007106804D54FF00044CE
:103D200044EAD00000E0400D48601068800703D5E9
:103D3000486840F080404860506800F00F0008720A
:103D4000906808739068000A48739068000C887344
:103D50009068000EC873D0680874D068000A487470
:103D6000D068000C8874D068000EC874D86840F021
:103D70002000D860012010BD40688268530102D540
:103D800000F5C07008E0130102D500F5C87003E02B
:103D9000D20033D500F5D07078B3026802F001028A
:103DA00002604A68002A03DA042303EBC20200E03F
:103DB000520502604A68520003D5026842F00202CE
:103DC0000260426822F00F02426042680B7A03F000
:103DD0000F031A4342600A7BD1F80D3042EA0322F6
:103DE00082600A7CD1F8111042EA0121C1600168A9
:103DF00041F00101016001207047FFE70020FBE76F
:103E000030B54D1E039CB5F5806F10D27AB1102AE3
:103E10000DD863B1082B0AD84CB1042C07D8C1F3D4
:103E2000090101818272C3720473012030BD002038
:103E300030BD000070B58CB000266846FCF7FEFD72
:103E40009DF81000002580B1FCF7D6FEFCF782FE3D
:103E5000022000908DF810506846FCF701FEFCF738
:103E60006DFEFCF76DFEFCF75FFE1A4807900468D4
:103E7000001D00684440174808300068079544401A
:103E800001200A90FCF7B8FE134D09950BA907A86D
:103E9000FCF756FD18B10A20FCF740FDF6E7224674
:103EA000002329460220FCF767FE18B10A20FCF720
:103EB00035FDF4E7094809900BA907A8FCF740FD78
:103EC00018B10A20FCF72AFDF6E7FCF72DFE0CB02E
:103ED000304670BDE8F7FF1F000001080008010828
:103EE00000F10802002302F8013909E001F00F0394
:103EF0000A2B01D2303300E0373302F801390909C7
:103F00008242F3D2704710B50446FCF77FFF626926
:103F100004F11401824207D24A68824204D200F1BD
:103F20001E022D30C1E900022046BDE8104000F01D
:103F300051B81C21FCF782B910B504464078A07036
:103F400002206070226161600021204600F008F8C4
:103F50002046BDE8104000F03DB8417000F03AB88E
:103F60002DE9F04104464068A16000EB4105184985
:103F700028784FF00102C70720784FF010034FF068
:103F800004060BD020B1012804D0022811D103E08F
:103F90004B610EE04E610CE04A610AE020B101285D
:103FA00004D0022805D103E00B6102E00E6100E0BD
:103FB0000A61FCF72BFF697801EB810100EB4100FE
:103FC000E060687800EB80004000BDE8F081000010
:103FD000001001402DE9F041054640780126284CAB
:103FE00010274FF0040800B301280CD002281CD180
:103FF00021E0022800D12661BDE8F0812761FBE7BE
:10400000C4F81080F8E7FCF701FFA96981420CD2DF
:10401000287828B1012805D00228EDD16661EBE7A8
:104020006761E9E7C4F81480E6E728780028E5D05E
:104030000128E5D0DDE768682C460028DCD0FCF7D5
:10404000E5FEE1680546A942D6D2A1682046491C92
:10405000A160FFF785FF10B12844E060CCE720693C
:1040600000280AD002DDA0F1010020612046BDE851
:10407000F0414FF00001FFF773BF00206060BBE725
:1040800000100140FCF7D0FEFEF75EF9FEF762F883
:10409000FEF7DAF8FEF72EF8FEF744F8BE48FDF713
:1040A000ABFFBE48FFF745FFBC481C30FFF741FFA0
:1040B000BA483830FFF73DFFB8484FF00009B7491C
:1040C00080F800901C304FF0010B80F800B03831C0
:1040D000022008704FF4C877384600F0A3F9B04CBE
:1040E000A060384600F09EF9E060384600F09AF98A
:1040F000206118213846FCF7ACF806465FF0000551
:1041000005EB450006EBC001A06800F0C5F96D1C89
:10411000BD42F5D3A14AA3491C32A2F54070FFF776
:1041200045FD9E4AA0493832A2F54370FFF73EFD97
:1041300099484030FFF7EEFC97485030FFF7EAFC13
:104140009548002299496030FEF7F5FC924898495D
:104150006030FEF7ABFE9048D4E902126030FEF703
:10416000ADFB8D4A0021403202F12000FEF7ECFB4E
:10417000894A0121503202F11000FEF7E5FB864822
:104180006030FEF7E9FEFFF755FE8A4E607010259D
:1041900075611E20FCF7C2FB35616420FCF7BEFB95
:1041A00075611E20FCF7BAFB35616420FCF7B6FB95
:1041B00001217A48FFF7D1FE00273E464FF0804AA2
:1041C000E06800F03EF9050027D0687A10B10128B8
:1041D00003D005E07048403001E06F485030606027
:1041E00029466068FFF7C8FD98B1207840B1C5F84E
:1041F0000090DAF824006861284600F099F903E09D
:104200002946A06800F048F960680068FFF77BFE67
:1042100003E02946E06800F06EF95F486030FEF781
:10422000E1FB70B1206900F00CF9050009D00146EE
:1042300059486030FEF769FB294638B3206900F021
:104240005AF955484030FFF7E7FC38B3A06800F052
:10425000F8F805001ED001464F484030FFF752FDE8
:10426000C0B1DAF8240068614FF0FF30286085F8AB
:10427000099085F80A9085F80B90284600F058F9C7
:10428000454840300068FFF73EFE07E0A06800F0B8
:1042900003F9D6E72946A06800F0FEF83E48503002
:1042A000FFF7BAFC18B3A06800F0CBF805001AD0ED
:1042B000014639485030FFF725FDA0B1DAF8240057
:1042C00068614FF0FF30286085F809B085F80A90E2
:1042D00085F80B90284600F02BF92F4850300068E5
:1042E000FFF711FE03E02946A06800F0D5F82A4840
:1042F0004030FFF757FC0546B84219D0A06800F0DF
:10430000A0F85FEA000813D0DAF824102248C8F8B1
:104310001410424629464030FFF784FC20B1404645
:1043200000F006F92F4603E04146A06800F0B4F81B
:1043300019485030FFF736FC0546B04219D0A06846
:1043400000F07FF85FEA000813D0DAF82410124872
:10435000C8F81410424629465030FFF763FC20B1DC
:10436000404600F0E5F82E4603E04146A06800F024
:1043700093F80A48FFF72EFE08481C30FFF72AFE84
:1043800006483830FFF726FE607800283FF418AF63
:10439000A06800F056F813E7EC010020100500209B
:1043A0000000002000640040006800404801002038
:1043B0001400002000100140F0B50B30154D20F026
:1043C00007010024144A0FE003688B420BD38B4291
:1043D00005D95E1A43184768C3E9006700E04368DF
:1043E000136002C004E0021D10680028ECD12046D2
:1043F000002802D1286808B10020F0BD064A07480D
:104400001060074A121A22F00702C0E900240120B6
:104410002860D7E798010020940100200C0A0020B2
:10442000086A002070B5054610210120FBF711FF36
:10443000044604212846FBF70CFF2560E060204677
:1044400070BD70B5EFF3108172B60022836863B15E
:104450004468C268056852F82420641CB4FBF5F671
:1044600005FB16445B1EC0E9014381F3108810462A
:1044700070BD30B58268002162B14368C1680468CC
:1044800051F823105B1CB3FBF4F504FB1533521EEB
:10449000C0E90132084630BD30B50023EFF3108289
:1044A00072B685680468A5420CD243682B44B3FBFE
:1044B000F4F504FB1533C46844F823108168491CE3
:1044C0000123816082F31088184630BD10B58468DE
:1044D000036800229C420CD242682244B2FBF3F4EF
:1044E00003FB1422C36843F822108168491C01228F
:1044F0008160104610BD30B50023EFF3108272B614
:1045000085680468A5420BD243686BB15B1E4360AB
:104510004468C36843F824108168491C0123816002
:1045200082F31088184630BD641E4460F0E7000036
:1045300070B506460E48FEF7A7F90E4C02280BD0C0
:10454000002531460A48FEF7E0F9314650B12069AE
:10455000FFF7A2FF284670BD31462069FFF79CFF98
:10456000012070BDA068FFF797FF0125F2E700006A
:104570004C0200200000002000000001210000008B
:104580000F000000F30000000051250201000000B0
:1045900010000000010000000800000004000000FE
:1045A0000100000000040000010000000000000005
:1045B00000000000010203040607080904100108B6
:1045C000000000209C010000B00200080C1101084E
:1045D0009C0100206C700000063B000800000000F9
:1045E00000000000000000000000000000000000CB
:1045F00000000000000000000000000000000000BB
:1046000000000000000000000000000000000000AA
:10461000000000000000000000000000000000009A
:020000040801F1
:10080000BBB001000000000000000000000000007C
:1008100000000000000000000000000000000000D8
:1008200000000000000000000000000000000000C8
:1008300000000000000000000000000000000000B8
:1008400000000000000000000000000000000000A8
:101000003C110800021301138D29140887271B08BF
:101010005D08411A9D0C1A45041A51044BFB281413
:10102000411A7D0C69043928290835010A020A147D
:1010300009022013010125804B09041502FFFFFF5F
:101040001C0705811419072A02071412034D1253B5
:101050001246125412311A30021913114228130188
:101060000479940008100157494E5553423A921C96
:101070001A052832883207122A1244126512761293
:10108000691A63081249126E1A7408127212663ACB
:10109000611212471A55161244327332501A7B16D7
:1010A00012311235126212341A337E12381A2D069A
:1010B00012341A640E1A2D1A1A31341A360A1A62A8
:1010C000101A65441A2D0E1A30301A371A12383A8F
:1010D000391E3A343C727D13D125140805261B08AD
:1010E00011041A29041A49041AA9141ADD04170450
:1010F000030904120132021E40501D6F60BD5B02E5
:0C11000003E529078210D324F40000004E
:04000005080001519D
:00000001FF
