:020000040800F2
:1000000060300020D50000082920000827200008C3
:1000100000000000000000000000000000000000E0
:10002000000000000000000000000000E3250008C0
:100030000000000000000000E1250008E5250008A0
:10004000E7000008E7000008E7000008E7000008F4
:10005000E7000008E7000008E7000008E7000008E4
:10006000E7000008E7000008E7000008E7000008D4
:10007000E7000008E7000008E7000008E7000008C4
:10008000E7000008E7000008E7000008E7000008B4
:10009000E7000008E7000008E7000008E7000008A4
:1000A000E7000008E7000008E7000008E700000894
:1000B000E7000008E7000008E70000084D360008E8
:1000C0000348854600F06EF8004800478D3D000863
:1000D000603000200448804704480047FEE7FEE700
:1000E000FEE7FEE7FEE7FEE781260008C100000804
:1000F00030B50B46014600202022012409E00D46C0
:10010000D5409D4205D31D469540491B2546954047
:1001100040191546521E002DF1DC30BD10B5202AC5
:1001200004DB0846203AD040002110BD0B46D340E6
:10013000D0402024A21A91400843194610BD03461E
:100140000B439B0703D009E008C9121F08C0042A0B
:10015000FAD203E00B780370401C491C521EF9D2FE
:100160007047D2B201E00270401C491EFBD27047BA
:100170000022F6E710B513460A4604461946FFF773
:10018000F0FF204610BD10B54843044604F028F89F
:10019000002805D00021002C02D0641E0155FAE78A
:1001A00010BD0000064C0125064E05E0E36807CCB3
:1001B0002B430C3C98471034B442F7D3FFF784FF2D
:1001C000A0430008C043000870B58C180578401C97
:1001D0006B075B0F01D10378401C2A1106D102780E
:1001E000401C03E006780E70401C491C5B1EF9D1D0
:1001F0002B0705D40023521E0DD40B70491CFAE7BF
:100200000378401CCB1A921C03E01D780D70491C2A
:100210005B1C521EF9D5A142D8D3002070BD00004E
:1002200070B5044600F092FB1A4D0646E868C00718
:100230000DD0601C08D0002C04D000F087FB801B80
:10024000A04201D9032070BDE868C007F1D1E86879
:10025000800601D52020E860E868C00602D4E8687E
:10026000400715D5E9680020CA060B4904D5C869BE
:1002700002221043C8611020EA68520705D5CA69F6
:1002800001231A43CA6104210843E860012070BDBC
:10029000002070BD002002404008002031B500F071
:1002A00055FB009C0546601C00D0641C00F04EFB12
:1002B000401BA042FAD338BDF3B5064681B00120F9
:1002C00000902E48017E01290CD001210176306872
:1002D0002B4D2C4C012808D02846FFF7A1FF002801
:1002E0001AD045E0022003B0F0BD2846FFF798FF82
:1002F00000283DD12149C86120690426304320618E
:1003000020694021084320612846FFF789FF0090BB
:100310002069B04320612BE000210298C9430160AD
:10032000B0687568C0024019A84221D90227134954
:100330000020C8612069384320616561206940213F
:10034000084320610E48FFF76BFF00902069B84317
:1003500020610098002802D00298056008E0012082
:10036000C0022D18B068C10270680818A842DED813
:10037000024900200876009803B0F0BD4008002034
:1003800050C3000000200240F8B5244CE06906216B
:10039000084002283ED004283ED0AA262048FFF775
:1003A0003FFF002835D11F480027C761206920255D
:1003B0002843206120694021084320611848FFF745
:1003C0002FFF2169A9432161002822D11448FFF79A
:1003D00027FF00281DD11348C761206928432061E9
:1003E00020694021084320610D4F3846FFF718FF70
:1003F0002169A943216100280BD1206910252843D8
:100400002061094806803846FFF70AFF2169A943A1
:100410002161F8BDBB26C1E7CC26BFE70020024022
:1004200050C300004008002000F8FF1F07210B4ABE
:100430000160116A8160D16906231940022909D03F
:10044000042909D0AA210173D1697722090A114030
:1004500041737047BB21F6E7CC21F4E7002002404E
:10046000F0B5904D0646297E012085B001291ED0A9
:100470000121297631788C4CC907002700297DD0CD
:100480007068B16801288948006A13D00843C1B276
:1004900002910104090E01910102000E090E04905F
:1004A00000918348FFF7BCFE00284DD087E0022072
:1004B00005B0F0BD8843C1B201910104090E049159
:1004C0000102000E090E029003917948FFF7A8FE81
:1004D000002874D1EF61FFF757FF00286FD17349EF
:1004E0000A6910231A430A610199FF2907D020895C
:1004F000084020816E48FFF793FE00281ED1049922
:10050000FF2907D06089084060816948FFF788FEAD
:10051000002813D10399FF2907D0A0890840A081A2
:100520006348FFF77DFE002808D10299FF2905D016
:10053000E0890840E0815E48FFF772FE5B490B6985
:10054000102293430B613AE0EF61FFF71DFF002893
:1005500035D156490A6910231A430A610299FF29C5
:1005600007D02089084320815148FFF759FE002811
:1005700020D10199FF2909D0608900E021E00843DA
:1005800060814B48FFF74CFE002813D10099FF29EA
:1005900007D0A0890843A0814548FFF741FE002805
:1005A00008D10499FF2905D0E0890843E08140483B
:1005B000FFF736FE3D490A6910239A430A61002875
:1005C0006DD13178890730D5307B01903848FFF7FD
:1005D00027FE002827D1EF61344800692021084315
:1005E00032490861086940210843304908613048B0
:1005F000FFF716FE2D490969202291432B4A11610C
:10060000002810D1104600691021084311460861E6
:10061000019820802648FFF703FE2449096910222B
:100620009143224A1161002839D1317849071CD5FC
:10063000707B01901E48FFF7F3FD002813D1EF6196
:100640001A48006910210843184908610198882157
:10065000084360801648FFF7E3FD1449096910223A
:100660009143124A1161002819D13178090716D532
:1006700030690190367D0E48FFF7D2FD00280ED17B
:10068000EF610A4C2069102108432061019806801F
:100690000748FFF7C5FD21691022914321612F769C
:1006A00005B0F0BD4008002000F8FF1F0020024008
:1006B00050C30000034801698022114301610020FA
:1006C000704700000020024010B505480169012272
:1006D0005203114301610348FFF7A2FD10BD000062
:1006E0000020024050C300000348016942159143B5
:1006F00001610020704700000020024005480169A8
:10070000890505D40449816004498160002070474F
:10071000012070470020024023016745AB89EFCDDF
:10072000F0B51FB4054621480024017E82B016466C
:10073000012907D0012707761D48FFF771FD002822
:1007400003D02DE0022007B0F0BD012D1ED0022DF8
:100750001ED004200090174D039861000F1822014D
:1007600030460599FFF7DAFC104A0021D16129696A
:1007700001221143296138800D48FFF751FD296995
:1007800049084900296100280AD104E0012000E05D
:1007900002200090DFE7641C0099E4B28C42DBD3B6
:1007A000024A0021117607B0F0BD00004008002089
:1007B00050C300000020024005480169090605D524
:1007C000044941600449416000207047012070479E
:1007D0000020024023016745AB89EFCD0B68002262
:1007E000002B6FD0F8B401270B6897403B406AD0CC
:1007F0004C68022C01D0122C0ED1D408A40024186D
:10080000A446246A5507ED0E0F26AE40B4430E6988
:10081000AE40264364462662056856000324B44071
:10082000A446A5430C79A407A40FB4402C4304604C
:100830004C68012C05D0022C03D0112C01D0122CB5
:100840000FD185686446A5432C46CD68B540254345
:10085000856045680C79BD43E406E40F94402C4361
:100860004460C4686546AC438D68B5402543C560A7
:100870004C68E4004ED52B4CA56901263543A56193
:10088000A469950834400094274CAD002F19BC682A
:1008900095072E0F0F25B540AC430925ED06A8425C
:1008A00001D1002516E0214DA84201D1012511E01A
:1008B0001F4DA84201D102250CE01E4DA84203D1D4
:1008C000032507E02DE025E01B4DA84201D10425BA
:1008D00000E00525B5402543BD60184D2C684E68E5
:1008E0009C43F60300D51C432C606C684E689C4307
:1008F000B60300D51C436C60AC684E689C43F6029E
:1009000000D51C43AC60EC684E689C43B60200D531
:100910001C43EC600B68521CD34000D063E7F8BC6A
:10092000704770470010024000000140000400487A
:1009300000080048000C0048001000480004014076
:10094000002A01D0816170478162704701480068C8
:10095000704700007C01002002480168491C0160CA
:10096000704700007C01002010B506480168102285
:1009700011430160002000F007F800F017F8002094
:1009800010BD00000020024010B5044600F07CFFBE
:100990007D21C900FFF7ACFB01F0F0F900222146F0
:1009A000501E00F021F8002010BD0000084881B062
:1009B0008169012211438161816911400091C269FD
:1009C00001040A43C261C0690840009001B0704749
:1009D00000100240C106C90E01208840014908608C
:1009E0007047000000E100E08207D30EFF229A402A
:1009F0008907090E994000280BDA0007000F083814
:100A0000830808489B001818C36993430B43C361CC
:100A10007047830804489B001B18186890430843DC
:100A20001860704700ED00E000E400E010B40C0630
:100A300006D54906490E1C2461430818283004E0F5
:100A40001C2461430818FF30093099B2002A07D0EE
:100A500001228272C180190C018110BC00207047F4
:100A6000002282728180F8E71C224A43121810B5D6
:100A7000FF30FF300230926BC06902F0FDF910BD0B
:100A80001C224A43121810B5FF30FF32FF300132EA
:100A900002309269C06902F052FA10BDF0B44A0601
:100AA000520E13461C256A43CC091218002C01D0A3
:100AB000283201E0FF32093204461370C909FF34BD
:100AC0005170E134217A01293BD001212172957ABC
:100AD000484B002D4849557836D0002D05681678CA
:100AE000AC465AD0B600AD5B6F0404D5434F0D4001
:100AF0003D436746BD5305681678AC46B600AD5B0E
:100B00006F0604D53E4F0D403D436746BD531578F3
:100B10000668AF00F55B0D4038490D43F553394F7A
:100B200011783D40066889001D4375521178364A98
:100B30000068890015401D43455200202072F0BC1A
:100B40007047F0BC02207047002D05681678AC464F
:100B500011D0B600AD5B6F0604D50D4028490D439A
:100B600061468D5305681078264A8100685A104006
:100B700018436852E1E7B600AD5B6F0404D50D4041
:100B80001E490D4361468D53056810781E4A810049
:100B9000685A104018436852CFE7B600AD5B6F0447
:100BA00004D5164F0D403D436746BD530568167882
:100BB000AC46B600AD5B6F0604D5114F0D403D430A
:100BC0006746BD5315780768AE00BD5B0D400C4904
:100BD0000D43BD530C4F16783D400168B6001D43D0
:100BE0008D531178074A0068890015401D4345520E
:100BF000A3E70000808000008F8F000080C000000D
:100C0000C0800000BF8F00008FBF0000F0B44B0613
:100C1000CA095B0E002A04D01C225A43121828323B
:100C200004E01C224A431218FF3209320024947057
:100C300013700346C909FF335170E133197A012952
:100C40001DD00121197251781B4C002911780668BA
:100C500018D08D00715B4F0603D52140174C2143FE
:100C60007153117800688A00815A154C2140102474
:100C7000614020246140134C2143815218E0F0BCB4
:100C8000022070478D00715B4F0403D521400E4C4C
:100C900021437153117800688A00815A0B4C21401E
:100CA00001242403614064006140064C21438152C9
:100CB00000201872F0BC70478F8F0000C0800000C9
:100CC000BF8F00008080000080C000008FBF000048
:100CD0004906490E1C2251430818FF300130008C90
:100CE00080B27047F0B44C06640E25461C277C4346
:100CF000CE092418002E01D0283401E0FF34093435
:100D00002570C9096170E260E3700346FF33E13387
:100D1000197A01290CD001211972E2789649002A2A
:100D200009D0012A22D0022A0FD0032A27D113E0AA
:100D3000F0BC02207047227805689200AE5A0E403F
:100D4000FF36FF360236AE5219E025780268AD0054
:100D5000565B0E40565312E025780268AD00565B94
:100D60000E40032149027118515308E025780268AA
:100D7000AD00565B0E40012189027118515327784E
:100D80000668BD00BC46725B7C497D4F0A403A4311
:100D900067463A437253A57A002D51D02578794F92
:100DA0000A400668AD003A437253E288502655085F
:100DB00002686D00B65AB6182278D7000122920256
:100DC000BA18B55222895026550802686D00B65AE5
:100DD000B6182278D7006C4ABA18B5526278002A41
:100DE00076D0227806689500725B570403D5674F6A
:100DF0000A403A437253227805689600AA5B570668
:100E000003D5634F0A403A43AA53227805689600F7
:100E1000AA5B0A405D490A43AA53217805688E00FF
:100E20005C490A4056490A43AA5324785A4D00683F
:100E3000A4002A400A43025300201872F0BC7047F5
:100E40006278002AA28821D0550802685026B65A36
:100E50006D00B6182278D70001229202BA18B55256
:100E6000227806689500725B570603D50A40484908
:100E70000A43725301682078464C8200885A204009
:100E8000202460403E4C20438852D5E75508026834
:100E90005026B65A6D00B6182278D7003A4ABA18CA
:100EA000B55202685025AD5A3C4EAA182578ED007F
:100EB000AD195219E5683E2D0BD9EE02360CED0640
:100EC00001D1761EB6B2B5020126F603354307E01E
:100ED00020E0EE03360CED0701D0761CB6B2B50269
:100EE0001580227806689500725B570403D50A4086
:100EF00026490A43725301682078274C8200885A99
:100F00002040012424036040640060401C4C2043C6
:100F1000885291E7227805689600AA5B570403D5AA
:100F20001A4F0A403A43AA53227806689500725B2A
:100F3000570603D5164F0A403A4372532278066883
:100F40009500725B0A4012490A4372532178056882
:100F50008E0011490A40012109034A4049004A40D4
:100F600007490A43AA5324780A4D0068A4002A407E
:100F70000A43025360E700008F8900008F8F000052
:100F800080800000808100000404000080C0000018
:100F9000C0800000BF8F00008FBF0000060400006B
:100FA000F0B44D066D0E1C246C432418FF34093434
:100FB000636122610022A26162702570E5681E46AD
:100FC000AB4203D92B46F21A626100E06261A67A55
:100FD00049060122890DD203002E354D06680CD03A
:100FE0005027BF5BBE192F1FC91976183E2B20D979
:100FF000D902090CDF0617D018E05027BF5B49194A
:10100000BE1975183E2B06D9D902090CDB062CD166
:10101000491E89B229E0D903090CDA072CD0491CF2
:1010200089B229E0298031E0491E89B28902114341
:1010300006E0D903090CDF0701D0491C89B28902F7
:1010400031806178002902D0012917D01EE00168A3
:101050005026765A71182678F60075194D193E2BD0
:1010600006D9D902090CDB06D2D089021143D9E78F
:10107000D903090CDA07D2D18902D3E701685022DB
:10108000525A51182278D20052198B520168207896
:10109000084B8200885A184001231B0358405B000C
:1010A0005840054B18438852F0BC002070470000A0
:1010B000060400008FBF0000808000000246FF325F
:1010C000E132137A012B01D102207047F0B40124E0
:1010D0004F06CB097F0E1472002B04D01C237B43D8
:1010E0001B18283304E01C234B431B18FF33093320
:1010F0009C701F70CE095E70012424031025114BD3
:10110000002F0BD04906C90D002E10D004680E4EDA
:10111000605A30406840184360520FE001680B4E3F
:1011200008883040604068401843088006E0056841
:10113000074E685A304060401843685200201072D1
:10114000F0BC704780800000BF8F0000BFBF000070
:101150008FBF0000F0B506461D464806400E1C2312
:1011600043439C19E563A2630022226401232834CF
:1011700063702070E0682B46854203D90546181A33
:10118000606100E06261A07A2A4F002810D02278C6
:1011900030689200825C49065206890D002A16DAF0
:1011A0005022125A10183A1D89184552228914E00B
:1011B000ABB2A2882169306801F0ECF930685021A7
:1011C000095A08182178C900C919455222E050224D
:1011D000125A1018C9194552E288ABB22169306819
:1011E00001F0D8F960781449002802D0012809D00C
:1011F00010E0207832688300D05A08400F49084335
:10120000D05207E0207832688300D05A08400C4959
:101210000843D052207831688200885A094B184020
:101220001023584020235840074B18438852002071
:10123000F0BD0000020400008F8F0000C08000009D
:1012400080C00000BF8F00008080000070B50446A1
:10125000006840308088C00B02D0204600F0E6FED7
:10126000206840308188490514D58188384A11406A
:101270008180204600F0E4F82046FF30E130017A1A
:10128000012907D0012101722168802240318A8121
:1012900000210172206840308188490403D581888B
:1012A0002C4A11408180206840308188890403D510
:1012B0008188294A11408180206840308188042536
:1012C000C904002910DA0188A9430180BD202168E2
:1012D000000240310880204600F0BEF8206840300F
:1012E00081881E4A1140818020684030818809052C
:1012F00017D581881A4A11408180206840300188C2
:101300000822114301802068403001882943018070
:10131000206840308088C043C00402D5204600F0D9
:10132000F3F8206840308188890506D581880D4A08
:1013300011408180204600F097F820684030818875
:10134000C90503D58188084A1140818070BD00001D
:10135000FFFB0000FFBF0000FFDF0000FFEF000009
:10136000FFF70000FFFD0000FFFE0000002801D194
:1013700001207047F8B50646FF360546E136707A1B
:101380000024002803D13472284600F03DF80320E1
:1013900070726B680127002B20D000221C20504364
:1013A0004019014620314F720A72CC724463846343
:1013B000521CC4635B1EF1D16A68002A0ED0002162
:1013C0001C2048434019FF30013044720172C4723E
:1013D00044618461491CC461521EF1D128684030C7
:1013E000078028684030048028684030848028685E
:1013F00040300482BF212868090240300180203536
:101400002C7177720020F8BD08B500680A4988423F
:1014100010D10A48C2690121C9050A43C261C069E5
:1014200000220840009001211F20FFF7DDFA1F2055
:10143000FFF7D0FA08BD0000005C00400010024039
:1014400010B5C41DFF34FA340121E06901F051FEEA
:10145000E06901F016FE10BDFF3010B5FF3002301C
:10146000C06901F031FE10BDFF3010B5FF30023011
:10147000C06901F02FFE10BD0246FF32E132137A3F
:10148000012B08D001231372002906D020300171EE
:1014900000201072704702207047006880214030A1
:1014A0008181F5E7F8B5C61DFF36FA36F4694120AB
:1014B0003146C000143920180746009101F077FE2C
:1014C000E51DFF35FA35297A0020C90603D13946D2
:1014D000204601F011FA297AC906C90E012903D163
:1014E0003946204601F02CFA002803D1F069009912
:1014F00001F00BFEF8BD00684030018B0122D203E1
:101500001143018300207047FF3010B5FF300230D7
:10151000C06901F03BFE10BD10490B69CA031343BB
:101520000B610B6993430B61426801681143826848
:101530001143C2680A43018A0B04094913434B60F3
:101540000A683F231B0240699A43000202430A6073
:1015500008686022104308607047000000100240D5
:10156000006C0040F8B504460068C0035BD54848ED
:101570000027C069C00008D44548C26901040A4375
:10158000C261C069084001270090424D2868C0052B
:1015900011D42868A91508432860FFF7D7F9064633
:1015A0002868C00507D4FFF7D1F9801B642826D826
:1015B0002868C005F7D53648006A032109020840AB
:1015C00023D062680A4082421FD0314E306A88437D
:1015D000316A0122120411433162316A914331624E
:1015E0003062C00711D0FFF7B1F9316A05468907AB
:1015F0000BD4294EFFF7AAF9401BB04201D90320B2
:10160000F8BD2348006A8007F4D52148016A032207
:1016100012029143626811430162002F03D0C16935
:1016200002049143C1612078C00706D01848016BBD
:10163000A26889088900114301632078800707D5D3
:101640001348016B032212049143E26811430163C2
:101650002078800606D50E49086B10229043226937
:10166000104308632068800306D50948016B802277
:101670009143A269114301632088400506D50448BF
:10168000016B402291436269114301630020F8BD60
:10169000001002400070004088130000F0B50646BC
:1016A000704889B000680F46C007C00FB8420AD220
:1016B0006C48016849084900394301600068C00767
:1016C000C00FB84270D13078674D800705D5686883
:1016D000F0218843B168084368603078C00768D05B
:1016E0007068012822D0022824D0032826D0296837
:1016F00089076ED569688908890001436960FFF729
:1017000025F97168044601291CD002292BD0032930
:10171000696839D00907890F4BD0FFF717F9011B0A
:101720005248814241D9032009B0F0BD296889039C
:101730004FD5DFE7296889014BD5DBE7696BC90322
:1017400047D5D7E769680907890F012931D0FFF725
:10175000FDF8011B45488142E5D868680007800F05
:101760000128F4D125E069680907890F022920D0F2
:10177000FFF7ECF8011B3D488142D4D868680007A8
:10178000800F0228F4D114E00907890F032910D033
:10179000FFF7DCF8011B35488142C4D868680007B0
:1017A000800F0328F4D104E013E068680007800F7D
:1017B000B3D12C480168C907C90FB9420CD90168D7
:1017C00049084900394301600068C007C00FB842AA
:1017D00002D0012009B0F0BD3078400706D5686816
:1017E000072109028843F16808436860204B6C4672
:1017F0000FCB0FC41F4B0FCB0FC46A680C201146D0
:1018000001401D4804291ED01C4B082902D00C2978
:1018100019D117E09102090F6C46645CE96A04AEC5
:101820000907090FD203715C920F022A01D0032A23
:1018300003D0FEF75DFC604305E01846FEF758FC58
:10184000604300E0184669680D4A0906090F515CBB
:10185000C8400C4908600020FFF796F8002009B046
:10186000F0BD00000020024000100240881300007C
:10187000FC1800080C19000800127A00006CDC0249
:101880008E43000880010020014800687047000076
:101890008001002030B519A30FCB89B06C460FC46E
:1018A0001AA30FCB0FC41D494A680C2014460440EC
:1018B0001B48042C05D01B4B082C04D00C2C00D149
:1018C000184609B030BD9402240F6D462C5DC96ADC
:1018D00004AD0907090FD203695C920F022A01D0F7
:1018E000032A04D0FEF704FC604309B030BD18465B
:1018F000FEF7FEFB604309B030BD000002030405A3
:10190000060708090A0B0C0D0E0F10100102030444
:1019100005060708090A0B0C0D0E0F1000100240F7
:1019200000127A00006CDC02F8B504460078FF4D26
:10193000C00754D068680007800F01282CD0686861
:101940000007800F022804D16868C003800F0228B6
:1019500022D06168012926D001208004002901D00D
:10196000052925D02A68012109048A432A602968AB
:10197000814329606068002823D0FEF7E7FF064610
:10198000286880032BD4FEF7E1FF801B64287DD8F4
:1019900028688003F7D522E0286880031FD5606897
:1019A000002874D01BE02968012000040143E0E70F
:1019B0002968014329602868012109040843286037
:1019C000D8E7FEF7C3FF06462868800307D5FEF771
:1019D000BDFF801B642859D828688003F7D420787D
:1019E000800749D568680007800F26D0686800071F
:1019F000800F022804D16868C003800F01281CD022
:101A0000E0680028286826D0012108432860FEF7F6
:101A10009DFF06462868800707D4FEF797FF801BC6
:101A2000022833D828688007F7D52968F820814331
:101A30002069C000014329601EE02868800702D5A4
:101A4000E068012823D12868F82188432169C9006A
:101A50000843286010E0400840002860FEF776FF49
:101A600006462868800707D5FEF770FF801B02280E
:101A70000CD828688007F7D42078000729D5E069BA
:101A80000028686A14D00121084301E07FE073E177
:101A90006862FEF75BFF0646686A800719D4FEF7A6
:101AA00055FF801B022872D8686A8007F7D510E0BE
:101AB000400840006862FEF749FF0646686A8007F2
:101AC00007D5FEF743FF801B022860D8686A8007AD
:101AD000F7D42078400771D500200090E869C00055
:101AE00008D4E969012000070143E961E96901407F
:101AF000012000908E4F3868C00511D43868B915A0
:101B000008433860FEF722FF06463868C00507D450
:101B1000FEF71CFF801B642839D83868C005F7D54C
:101B2000A06801281ED0002821D00528286A27D0C7
:101B3000400840002862286A042188432862A0687F
:101B40007C4E002824D0FEF701FF0746286A800754
:101B50002CD4FEF7FBFEC01BB04218D8286A8007C1
:101B6000F7D523E0296A012001432962E7E7286AC3
:101B7000400840002862286A042188432862DEE782
:101B8000042108432862286A01210843D6E77FE040
:101B9000FEF7DCFE0746286A800707D5FEF7D6FE6B
:101BA000C01BB04274D8286A8007F7D40098002878
:101BB00004D0E869012109078843E8612078C0065C
:101BC0001AD56069012825D0401D686B40D00421DA
:101BD00008436863686B400840006863FEF7B6FE20
:101BE0000646686B800707D5FEF7B0FE801B02280B
:101BF0004ED8686B8007F7D42078800663D5686874
:101C00000007800F032844D068680007800F02286F
:101C100022D026E0686B042108436863686B0121C9
:101C200008436863FEF792FE0646686B800707D498
:101C3000FEF78CFE801B02285FD8686B8007F7D503
:101C4000686BF8218843A169C90008436863D3E73A
:101C5000042188436863F3E76868C003800F0328A2
:101C600017D0206A00281BD0686B012109040843A3
:101C70006863FEF76BFE0646686BC00323D4FEF76D
:101C800065FE801B022838D8686BC003F7D51AE0C0
:101C900033E0686BC00316D5206A01286CD112E0CE
:101CA000696B0120000481436963FEF74FFE06461D
:101CB000686BC00307D5FEF749FE801B02281CD8BD
:101CC000686BC003F7D4606A002853D069680907BD
:101CD000890F022950D001273F06022828680ED01C
:101CE000B8432860FEF732FE04462868800141D5DB
:101CF000FEF72CFE001B022839D90320F8BDB8439B
:101D00002860FEF723FE06462868800107D5FEF707
:101D10001DFE801B0228F0D828688001F7D4E86AED
:101D2000216B000900010843E86205E00010024051
:101D30000070004088130000E26AA06A69680243EC
:101D40007B20C00381430A436A60286838432860C7
:101D5000FEF7FCFD0446286880010BD4FEF7F6FD73
:101D6000001B0228C9D828688001F7D502E028683E
:101D70008001BDD40020F8BD0120F8BD0B4910B48E
:101D8000401E884202D910BC0120704708494861B2
:101D900008480722C3691B021B0A4C042343C36182
:101DA000002088610A6110BC70470000FFFFFF003F
:101DB00000E000E004ED00E002462032137F012B3A
:101DC00001D10220704770B40123137702245477A5
:101DD000046865687026B5436560046865680E68C8
:101DE000354365600468A5688026B543A560006832
:101DF000846849680C43846053770020107770BC76
:101E00007047002801D10120704770B5054604468F
:101E10002035687F002803D12877204600F00AF893
:101E200002206877211D206800F058FC01206877A7
:101E3000002070BD00680121890781B0884207D168
:101E40000448C16901221143C161C069104000907A
:101E500001B07047001002400222014620314A774B
:101E6000026813680120034313604877002070471D
:101E7000F0B5054620352A7F012A19D001222A779C
:101E800002226A7703689A687724A243FF24240217
:101E9000A2439A600E6870220723502E42D00EDCB7
:101EA000202E7DD006DC002E7BD0102E57D19EE058
:101EB0000220F0BD302E75D0402E50D173E0602E40
:101EC0004ED0702E1CD001221203B31A13D09342AD
:101ED00045D10268CF688E684B689168A1433C0287
:101EE0001C4334430C4394600068816801229203D0
:101EF0001143816092E000688168C908C900F8E771
:101F00000268CF688E684B689168A1433C021C430D
:101F100034430C43946002689068772188430843F7
:101F200090607BE004684E68CF68216AB646BC4684
:101F3000266A760876002662A669F027BE436746C1
:101F40003F0137430A26B14376463143A7612162F8
:101F500004685021A068904308431843A0605DE0E6
:101F60004E680468B646CE68216A1027B9432162DC
:101F7000A169276A3603BC460F273F03B9430E43C6
:101F80006746A0218F43714609013943A66121624A
:101F900001686024886890432043184388603DE0CE
:101FA0002DE01EE033E004684E68CF68216AB64633
:101FB000BC46266A760876002662A669F027BE43EC
:101FC00067463F0137430A26B14376463143A7614E
:101FD0002162016840248868904320431843886048
:101FE0001CE00168886890431843886016E0016827
:101FF0001024886890432043184388600EE00168ED
:1020000020248868904320431843886006E00468D1
:102010003021A068904308431843A06001206877EE
:1020200000202877F0BDFEE770470000F0B593B0C0
:102030000446002069468880216840318A886946C4
:102040008A8311047ED5214628310846E0300A9063
:10205000E4300990204620300B9108906846808B30
:1020600005072D0F46D0A80021680290085A6A463D
:1020700090809288120466D5FE4A1040029A8852D7
:102080001C2068430619FF360936B07A00287DD037
:10209000317820688A00825A520478D55022125A28
:1020A000CB00F54912185918515A8F05BF0D6FD042
:1020B00031690391F28879080E911118012080028C
:1020C00008180E998446002911D00E9B03990288A6
:1020D0000A70120A4A70801C891C5B1EF7D10E9888
:1020E0006146400041188C46039940180390F80758
:1020F0006FD13AE16846808BC0062DD42068DF4A54
:1021000001881140018020685021095A0B9D09184F
:102110002878C200D8481018085A8005800DA86198
:1021200029690818286100212046FEF79DFC0898BF
:10213000007900284CD06869002849D108980079B6
:10214000802101E017E22EE10843216840318881B7
:1021500008990020087106E220680A9E01886A46F4
:1021600091809288120535D55021095A0818317886
:10217000CA00C3495118405A8705BF0DB76120688E
:10218000B1887A0809189446012002E08AE0BCE090
:10219000EBE080020E18099D002A0DD0314628463A
:1021A0000B8803701B0A4370801C891C521EF7D1D8
:1021B0006046400086194519F80701D0307828702C
:1021C0002068AC4A0188114001802046FFF76AF977
:1021D000C9E1C6E06A469288120462D5A54AA84DB4
:1021E0001140018020685021095A08183178C9002F
:1021F0004919405A8005800DB06127D022683169A5
:102200000491B1888446400806908918A81F0F18C9
:102210000698002810D0069A0499384603880B7057
:102220001B0A4B70801C891C521EF7D1069804991A
:102230004000C719401804906046C00702D00499B6
:10224000387808703169B06908183061002120467B
:10225000FEF716FC20685021095A0818F168401949
:102260003E290AD9CA02120CC90601D1521E92B2E5
:1022700091020122D203114306E0CA03120CC907DE
:1022800001D0521C92B29102018021687D4A0888D7
:102290001040012212035040520050407A4A10432D
:1022A000088060E122685020805A81183078C3008D
:1022B00073481818085A8705BF0D5FD0306903901E
:1022C000B18878080E900120891880020818844689
:1022D0000E98002812D00E9A039861460B8803705E
:1022E0001B0A4370801C891C521EF7D10E98614650
:1022F000400041188C46039940180390F8073DD0E0
:10230000604603990078087038E05022125AC900DC
:1023100013185B4A8918595A8F05BF0D25D03169AA
:102320000391328979080E91111801208002081852
:102330000E998446002912D001460E9B03980A8804
:102340000270120A4270801C891C5B1EF7D10E9825
:102350006146400041188C46039940180390F807E5
:1023600003D06046039900780870307821688200B5
:10237000885A464B1840464B18438852B069C019DA
:10238000B0613069C21932617369002B02D0F06804
:10239000B84204D931782046FEF772FB03E0317869
:1023A0002046FEF7FDFD68468088000672D51C2099
:1023B000454320680299314A415A2B191140029A2B
:1023C00028338152987A0028206836D019788A00FC
:1023D000825C520678D55022125AC900121826483B
:1023E0000818105A8105890D99616CD0491C26681E
:1023F000DD884A080121AD19890269181869002A87
:1024000061D0801E891ED50706D0C57886782D023A
:1024100035434D80801C891C521054D0C578867875
:102420002D0235434D80457906792D0235438D8047
:10243000001D091D521EF1D177E05021095A0818DC
:102440001978CA000C495118405A8105890D9961C3
:1024500074D0491C26689D884A080121AD1989025B
:1024600069181869002A69D0801E891ED50718D0FE
:10247000C57810E08F0F0000020400000F8F0000ED
:10248000060400008FBF0000808000008F8F0000D6
:10249000C080000067E086782D0235434D80801CA7
:1024A000891C52104AD0C57886782D0235434D805C
:1024B000457906792D0235438D80001D091D521E78
:1024C000F1D13BE000E030E05022125AC90012186E
:1024D0002C480818105A8105890D996125D0491C8E
:1024E00022681E894D080121B21889025118186905
:1024F000002D1AD0801E891EEA0706D0C278867881
:10250000120232434A80801C891C6A100DD0C578A3
:1025100086782D0235434D80457906792D02354365
:102520008D80001D091D521EF1D11878216882008E
:10253000885A154D2840154D28438852206850214F
:10254000095A0D1819781248CA001018285A80051F
:10255000800D98611A6912181A615B692046002B78
:102560000CD0FEF7F7FD20684030808869468883EC
:10257000000400D572E5002013B0F0BDFEF774FA38
:10258000F1E70000060400008F8F000080C000000B
:1025900002040000101801225B1C920210B45B08B8
:1025A0008018002B1AD0801E891EDA0706D0CA7840
:1025B0008C78120222434280801C891C5A100DD054
:1025C000CB788C781B02234343804B790C791B0218
:1025D00023438380001D091D521EF1D110BC70479A
:1025E0007047704710B5FEF7B7F910BD30B5A1B010
:1025F00034216846FDF7BCFD00241C941D941E94F4
:102600001F94149417941894159419940E9412947A
:10261000012016941A940F94202513940890109476
:102620001194009509946846FFF77EF907201C90E5
:1026300003201D901E9401211F941CA8FFF72EF863
:10264000280314901A9414A8FEF78CFF0A48C26954
:10265000C1030A43C261C0690E9408400D9088000E
:102660000F900648119022201290109413950EA8F6
:10267000FEF752FF21B030BD001002407FBB0000CA
:10268000124801680122114301604168104A11405B
:10269000416001680F4A1140016001680122920403
:1026A0009143016041683F22120491434160C16A35
:1026B00009090901C162016B074A11400163416BBD
:1026C00049084900416300218160704700100240C1
:1026D0000CB8FF08FFFFF6FE2CFEFCFFF0B402680A
:1026E0001E4B0124A4071E4D984203D0A04201D0E6
:1026F000A84203D17026B2434E683243194E1A4F96
:1027000098420DD0A0420BD0A84209D0174CA0424D
:1027100006D0B04204D0B84202D0154CA04204D139
:1027200003242402A243CC6822438024A2434C69A0
:10273000224302608A68C2620A688262984206D0B6
:10274000B04204D0B84202D0094A904201D109698E
:10275000016301214161F0BC70470000002C014081
:1027600000040040004001400044014000200040BF
:102770000048014010B585229200125852689047D7
:10278000002010BD134610B50A46002100F070FC71
:10279000002010BD134610B50A46002100F0FEFCD3
:1027A000002010BD10B50446802100F0DDFC0021A2
:1027B000204600F0D9FC10BD10B5FF230324F533EB
:1027C0001C50C31DF9339A60DA6013460A46002193
:1027D00000F04EFC002010BD10B5FF210522F531A0
:1027E0000A5000231A46194600F042FC002010BD92
:1027F00010B5FF230224F5331C5082611346C261D9
:102800000A46002100F0CAFC002010BD10B5FF21CF
:102810000422F5310A5000231A46194600F0BEFC86
:10282000002010BD10B50A46024903A000F0D1FAFD
:10283000004810BD1C04002063616E646F5F7573F7
:102840006220636F6E6669670000000012200880D6
:10285000004870473400002010B50A46024903A022
:1028600000F0B7FA004810BD1C04002063616E64DC
:102870006F5F75736220696E74657266616365006F
:1028800004200880004870473000002010B50A4638
:10289000024903A000F09DFA004810BD1C0400206E
:1028A0004142460010B50A46024903A000F091FAE1
:1028B000004810BD1C04002043616E646F000000DE
:1028C00030B50B4C87B00D466846E16A01F0B4F9AB
:1028D00002A8216B01F0B0F904A8616B01F0ACF91A
:1028E0002A460449684600F074FA024807B030BD31
:1028F00080F7FF1F1C04002010B54A78202A0FD152
:102900008A88042A02D0052A0AD106E0CA880A4B1E
:102910002824282A0BD9224609E04A88002A01D017
:10292000002010BDCA88054B9224922AF3D819467C
:10293000FFF75EFF012010BDC0000020E80000206E
:1029400070B54A78202A13D18A880124042A02D03B
:10295000052A0DD109E0CA880A4B2825282A0ED855
:102960001946FFF745FF204670BD4A88002A01D06E
:10297000002070BDCA88044B9225922AF0D92A46BD
:10298000EEE70000C0000020E8000020FF30FF302C
:10299000023080690021016408467047F8B504469A
:1029A000FF30FF300230009085690227204600F09A
:1029B00000FB14280AD3286D01F06FFC060005D037
:1029C000A96D686D01F096FC0027AE650099204660
:1029D000896918238A6D022100F04AFB3846F8BD48
:1029E00010B50446812100F03EFA0221204600F095
:1029F0003AFA002010BD0000F8B5FF30FF30023079
:102A000084692546443568780A283FD20100794414
:102A1000097949188F44047526BEBEBEBE07BE1D87
:102A20002068E064B6E02068002806D00022D24387
:102A30005A49206E01F030F9ACE068888000001936
:102A4000C06D00F0B5FE226E0146104601F046F959
:102A5000A0E0A878216801F0BFF8002816D001F0A6
:102A600081F897E06888002810D10022237810466A
:102A700018436378E1781B021843A378E66D1B04C2
:102A800018430906084302D0012806D082E03046E8
:102A900000F0F3FD0021206E30E02379E179184643
:102AA000637909061B021843A3791B0418430843E2
:102AB000C0062146C00F603108712779E379384696
:102AC00067791B063F023843A7793F043843184310
:102AD0000306DB0F0B73C10502D531490A7002E012
:102AE0002F4A012111700107C207CB0F8007C10FC8
:102AF000D20F304600F0C7FD0121206E01F0EEF844
:102B000048E06888002845D10C2161180A781046F1
:102B10004A78120210438A78C978120410430906D1
:102B20000843C0B200902278E17810466278090626
:102B300012021043A2782379120410430843194665
:102B40006379E2791B021943A37912061B04194326
:102B500011434018082161180B78C2B218464B780F
:102B60001B0218438B78C9781B04184309060843D5
:102B7000102161180E78C3B230464E7836023043C9
:102B80008E78C978360430430906084381B2E06D77
:102B900000F0C8FFFF2068700020F8BD850000200D
:102BA0000000002020210180004870478C00002098
:102BB000FF30FF300230806960300079002801D09A
:102BC000022070470120704710B5EE2905D0002182
:102BD0001180FFF7E7FD002010BD12201080014892
:102BE00010BD0000AC000020FFB5044681B01E46B9
:102BF0001746022570210120FDF7C5FAFF34FF3486
:102C000000210234002807D0029A47650666026553
:102C1000A0610025816500E0A161284605B0F0BDF6
:102C2000FF30FF300230012189078069496A8166DF
:102C30000020704770B5C61DFF360546FA36B069EC
:102C400018246030027988B0002A00D11424007B57
:102C500000280BD022466846FDF771FA2020011BA0
:102C600068460019FDF784FA694620242346B469B2
:102C70002846256C0A460121002D02D0084608B0DE
:102C800070BD2164812100F089FA002008B070BD78
:102C9000FF30FF3002308069002802D0002900D1C7
:102CA000C265704770B50A7860231A4054D0202A54
:102CB00001D0402A57D10646FF30FF3002308569E7
:102CC00048780C460A2838D2010079440979491815
:102CD0008F44040404331D14280430042846403073
:102CE000218881806188C180A1880181E18841813A
:102CF000E28829463046FFF75FFD34E00C221B498D
:102D00002846FDF71CFAE2882946304629E02822A9
:102D100017492846FDF713FAE28829463046FFF79F
:102D200067FD20E0A86E2860042229463046FFF7A0
:102D30005FFD18E06088002804D021463046FFF788
:102D400031FD10E0002000F033FF28600422294606
:102D50003046FFF74DFD06E049780A2903D10122EC
:102D60000449FFF745FD002070BD00005A430008EC
:102D7000664300088400002070B50446E61DFF3657
:102D8000FA36B5690220002D17D0202302228121B6
:102D9000204600F061F9022220231146204600F06F
:102DA0005BF9286D01F061FAA865B16920468A6D6A
:102DB0001823022100F05CF9002070BDFF30FF30C5
:102DC00002308069006C002801D00020704701208B
:102DD00070470023002823D070B4067800250446ED
:102DE000002E05D06D1C6678641CEDB2002EF9D162
:102DF0006C00A41C1480CC5403225B1CCA540278BF
:102E00005B1C002A0AD00024CA545B1CDAB28C5422
:102E1000521CD3B24278401C002AF5D170BC7047D6
:102E20007047002801D102207047C31D10B5FF3341
:102E3000FA335C69002C01D000245C61002900D0C9
:102E40001961FF210123FD310B54027000F0BAF823
:102E5000002010BDFF3010B5FF300230006AFDF7D2
:102E6000D5FE002010BDFF3010B5FF300230006AE3
:102E7000FDF714FE002010BDF0B50446FF30E51D3F
:102E8000E130FF3583B0FA3513460190002908D0B0
:102E900068694269002A4FD00198007F032849D011
:102EA0004AE02646FF3681362046716F14300229EB
:102EB0003AD1C2688168009291420DD9891A816025
:102EC0008AB219462046FFF765FC00231A461946C8
:102ED000204600F0CDF827E0406811460746FDF790
:102EE00007F9002913D10098874210D3B06F8742A9
:102EF0000DD2002211462046FFF74CFC002003466D
:102F000002460146B067204600F0B2F80CE068695E
:102F1000C168002905D00198007F032801D120460F
:102F200088472046FFF758FC2878012804D1002064
:102F3000287001E020469047002003B0F0BD70B536
:102F40000546FF35E1352B46203316460446002959
:102F500007D058698269002A29D0287F032824D005
:102F600025E0FF21F531E01D0959FD3003291ED16F
:102F70008268C1688A420BD9511A8160C068814257
:102F800000D301468AB231462046FFF7FBFB0EE034
:102F900058690169002904D0287F032801D12046FF
:102FA00088472046FFF732FC01E02046904700208A
:102FB00070BDFF3010B5FF300230006AFDF788FEAB
:102FC00010BD000010B51749C41DC861FF34164973
:102FD000FA34164821620860022205208A6048609F
:102FE0000020C86088610A61C8610846FEF7BEF922
:102FF000002218231146206AFDF718FD58230022ED
:103000008021206AFDF712FD982300228121206A89
:10301000FDF70CFD064B01220221206AFDF706FD9B
:10302000002010BD1C0800201C060020005C004091
:103030005801D800FF30CA09FF3049060230490E56
:103040001C23006A59430818002A01D0203001E0EF
:10305000FF300130807A704710B5FF301C46FF30DA
:1030600002301346006A2246FDF73CFE002010BDE8
:10307000FF3010B5FF300230006AFDF791FF0020ED
:1030800010BD70B50022044640231146FFF7E4FF4F
:103090004025FF20113005512B460022802120467B
:1030A000FFF7DAFFFF200121FD3025620155E01D09
:1030B000FF30FA308169002904D0406921794268E3
:1030C00020469047002070BDFF30E130417F0177FE
:1030D0000020704710B5FF21FD31095C032906D19E
:1030E000852189000958C969002900D08847002036
:1030F00010BD017400207047FF3010B5FF30023062
:10310000006AFEF7B9F9002010BD70B504464120F1
:10311000C0002018054600F04AF82146FF318131F1
:103120000122084680304A67C2898A67007AC10650
:10313000C90E0AD001290DD0022910D0C109C90138
:10314000204600F011F8002070BD2946204600F00E
:1031500061F8F8E72946204600F056FAF3E72946D9
:10316000204600F0CBF9EEE7FF3010B5FF3002301B
:10317000006AFDF7A3FF002010BDFF3010B5FF303F
:103180000230006AFEF7B7F9002010BDFF30E130D1
:10319000017F41770421017700207047FF3010B58F
:1031A000FF300230006AFDF7D5FF002010BD0A781D
:1031B00002704A784270CB788A781B02D21842801B
:1031C0004B790A791B02D21882808A79C97909025F
:1031D0005118C180704702460020002904D0FF32F8
:1031E000FF320232516170470220704710B58522CC
:1031F000920012580224002A04D012689047002836
:1032000000D10024204610BD10B5FFF7B6FF002006
:1032100010BD0000F8B50D46497800260A296ED287
:103220000A007A44127992189744F2F169F069A27F
:103230000469FEC104466888010A082972D20A009E
:103240007A441279921897446D030C226D6D6E7951
:10325000212109010959207C0A68694690470146E5
:1032600078E0207C002808D0852080000059C16AC1
:1032700068468847014602226BE08520800000599D
:10328000816A6846884702220146427062E0C1B204
:1032900006293ED20A007A44127992189744020B0A
:1032A000141D2630212109010959207C4A686946EC
:1032B000904701464EE0212109010959207C8A6886
:1032C00069469047014645E0212109010959207CC2
:1032D000CA686946904701463CE021210901095925
:1032E000207C0A6969469047014633E021210901A3
:1032F0000959207C4A696946904701462AE0B0E0B6
:10330000212109010959207C8A69694690470146B3
:1033100020E0C1B28520800000596A46836B2046B8
:10332000984709E075E0207C002872D18520800054
:103330000059416B6846884701460BE0207C002815
:1033400067D1852080000059016B68468847014697
:1033500007224A7068460088002844D0EA88002A7C
:1033600041D0824200D902466846028020466EE083
:103370000446A88800284CD1E888002849D1A878BC
:103380002546FF354706E135287F7F0E032840D0CC
:10339000AF7739462046FFF7AFFE2046FFF736FAF3
:1033A000002F01D0022000E00120287792E0A978C8
:1033B000514D0446297001292BD82046FF30E130B9
:1033C000027F022A02D0032A7CD10DE0002907D017
:1033D0000322616002772046FFF708FF022871D0C0
:1033E0002046FFF713FA75E0002913D06068884281
:1033F000F6D0C1B22046FFF7BDF9297820466160BA
:10340000FFF7F4FE02285DD0EAE70DE03FE050E070
:1034100020E057E00222027720466160FFF7AAF918
:103420002046FFF7F3F955E0E988012919D1FF217A
:10343000FD31095C022902D0032912D105E00021E7
:10344000816001220146083101E00122011DFFF7E0
:10345000CFF93FE0FF21FD31095C02290AD00329A1
:1034600008D004468021FFF77FFE00212046FFF7A9
:103470007BFE2FE00021C1608121890009580029CD
:1034800001D00221C160022201460C31DFE704466F
:103490006888294601281DD1E01D0122FF30FA303D
:1034A000426040698268204690472046FFF7AEF9A7
:1034B00010E00446FF30E130007F294602280BD09F
:1034C000032809D080212046FFF74EFE0021204628
:1034D000FFF74AFE3046F8BD48880128FAD1E01DC2
:1034E0000022FF30FA3042604069826820469047EF
:1034F0002046FFF78BF9EDE784010020F8B504467C
:103500000D462878E61D4006FF3600270979800F12
:10351000FA36012809D06A7830462038002A45D08A
:10352000012A27D0032A4ED106E070692946826815
:10353000204690470020F8BD007F022802D00328D3
:1035400039D104E000293ED0802940D13BE0688891
:10355000002806D1002904D0802902D02046FFF798
:1035600003FE706929468268204690472046FFF78F
:103570004DF928E0007F022802D003281BD104E087
:10358000002920D0802922D11DE0688800281AD186
:10359000480607D02046FFF75DFC7069294682681F
:1035A000204690472046FFF731F90CE0007F0228C3
:1035B0000BD003280FD080212046FFF7D5FD002136
:1035C0002046FFF7D1FD3846F8BD4806FBD020461F
:1035D000FFF7CAFDF7E7C80904D04806400D0519F2
:1035E000143504E04806400D0519FF350535204621
:1035F000FFF720FD002800D0012028600222294684
:103600002046FFF7F5F8DEE770B50446FF30E130FD
:10361000007F0D4603280FD1287901280CD885207A
:1036200080000059826820469047E88800280BD126
:103630002046FFF7EBF807E080212046FFF794FDD6
:1036400000212046FFF790FD002070BD10B5024814
:10365000FDF7FCFD10BD00001C06002002E008C8BC
:10366000121F08C1002AFAD170477047002001E0FC
:1036700001C1121F002AFBD17047006801680122B6
:10368000114301607047F0B40468002B01D010258D
:1036900000E0002545231D43037A867901275B1E40
:1036A00036043F041B06F61B3343C6793F0136053B
:1036B0008088F61B3343401E0343002901D0B80223
:1036C00000E000200343002A02D00120C00700E0F0
:1036D0000020034320680121C903084320602068BB
:1036E0000004FCD460688007FCD5206801210843F1
:1036F00020606068C007FCD02560E3612068400856
:10370000400020606068C007FCD1FF34FF34023401
:1037100020680843206020683F2212029043206006
:10372000E06940084000E061E0680843E0606068EC
:1037300040084000606000202064606460694008C8
:1037400040006061E0690843E06120684008400093
:103750002060F0BC704700688069704770B504460F
:10376000114886B0C2690D46012149060A43C2616B
:10377000C069022608400590032000020090002046
:1037800002900320039004200490019669460748A4
:10379000FDF724F806202560A0800D20A071E671B9
:1037A0000120207206B070BD0010024000040048E5
:1037B00000680068C007C017401C70470068C068F8
:1037C000800700D00120704770B40023DB431370E2
:1037D0001C0A54701C0C94701B0ED3706A4B13712E
:1037E0001C0A54711C0C94711B0ED3710824002305
:1037F0001472137353739373D37313745374937456
:10380000D3744D0707D5614D15712E0A56712E0CD4
:1038100096712D0ED5710D0C95740D0ED57405682D
:10382000ED68EE061025002E06DA0123937200687B
:10383000C368AB43C36000E09372880704D5507B34
:1038400030231843507305E0C80703D0507B0C2386
:10385000184350734806400F4ED007284CD2010041
:103860007944097949188F448B031B33485E7500EE
:103870001379D1791846537909061B0218439379B5
:103880001B041843084320431071010A5171010CB5
:103890009171000ED071907B0421084390736FE00A
:1038A0001379D1791846537909061B021843937985
:1038B0001B041843084320431071010A5171010C85
:1038C0009171000ED071907B02210843907357E0F4
:1038D0001379D1791846537909061B021843937955
:1038E0001B0418430843202108431071010A517139
:1038F000010C9171000ED07142E01379D179184614
:10390000537909061B02184393791B041843084393
:1039100020431071010A5171010C9171000ED07198
:10392000907B284314E01379D1791846537909061E
:103930001B02184393791B0418430843204310715A
:10394000010A5171010C9171000ED071907B2043DE
:10395000907315E01379D1791846537909061B0243
:10396000184393791B041843084320431071010A3C
:103970005171010C9171000ED071D07B2043D07336
:1039800070BC0120704700000400002044000020AB
:1039900030B40268D068800751D01046FF30B13093
:1039A00003685B0703680BD50124DB08E4071B19D8
:1039B0000B711C0A4C711C0C8C711B0ECB7107E037
:1039C0005B0D0B711C0A4C711C0C8C711B0ECB71A6
:1039D00003689B0714D50D79CC792B464D792406C5
:1039E0002D022B438D792D042B4323430124A4075F
:1039F00023430B711C0A4C711C0C8C711B0ECB7178
:103A000043681B071B0F0B7283680B7383681B0AC9
:103A10004B7383681B0C8B7383681B0ECB73C3685B
:103A20000B74C3681B0A4B74C3681B0C8B74C0688F
:103A3000000EC874D06820210843D060012030BC3B
:103A4000704730B400688268530102D5FF3081307E
:103A500008E0130102D5FF30913003E0D2005ED5BB
:103A6000FF30A13000285AD00268D207D20F02607E
:103A70000C79CB7922464C79240222438C79240498
:103A800022431B061A4302D5D200121D00E0520544
:103A900002600C79CB7922464C791B062402224322
:103AA0008C79240422431A43520003D5026802236E
:103AB0001A430260426812091201426042680B7A9E
:103AC0001B071B0F1A4342604A1C0C24141925784B
:103AD00013462A4665782D022A43A578E4782D04FA
:103AE0002A43240622430C7B1202224382601022C6
:103AF0009B181C78097C22465C78240222439C781F
:103B0000DB78240422431B061A4312020A43C260D4
:103B1000016801221143016030BC1046704730BC7F
:103B20000020704770B40E4E4D1E039CB54213D852
:103B3000002A11D0102A0FD8002B0DD0082B0BD83B
:103B4000002C09D0042C07D8314081808271C371C8
:103B5000047270BC0120704770BC002070470000E8
:103B6000FF03000000B585B00E48029001200390CD
:103B700000200190FCF720FE0B493420C860694604
:103B800001A8FCF799FB0098401C06D107480023C8
:103B9000026804490220FCF7C3FDFCF78BFD05B069
:103BA00000BD000000F801080020024010000020C5
:103BB000002801D0002070470148006870470000CD
:103BC00010000020034902480968016070470000A6
:103BD0001000002000F8010810B584B0002802D0C1
:103BE000002004B010BD114C002022688A4219D078
:103BF00021600F490291012103910190FCF7DCFD46
:103C00000C493420C860694601A8FCF755FB0098B0
:103C1000401C05D10023064902202268FCF780FDE4
:103C2000FCF748FD012004B010BD0000100000208A
:103C300000F8010800200240002202720823C01D83
:103C40000A07120F0A2A01D2303200E0373202701E
:103C50000909401E5B1EF3D1704710B50446FCF7FE
:103C600075FE214662691431824207D24A68824257
:103C700004D202461E322D304A600860204600F011
:103C800032F810BD0021016041608160C1600161B6
:103C9000416181617047000070B504460078607032
:103CA00004202070226100206160A06008780D4629
:103CB000C2070848084901D0886200E08861FCF723
:103CC00045FE69780A2251434018E060204600F022
:103CD0000AF870BD000100000000004810B5017036
:103CE00000F001F810BDF8B504460078FF2509265C
:103CF0000135F606002846D0012802D0042842D11A
:103D000006E0FCF723FEA16981423CD2B562F8BD12
:103D100060680028FBD0FCF719FE0090E168814242
:103D2000F5D2A068401CA060616840000F18387888
:103D3000C00701D0B56200E0B561FCF707FE7978F5
:103D40000A2251434018E0607878504302D000992D
:103D5000081814E020690021002812D001DD401E5F
:103D600020616768A1603878C00701D0B56200E0C3
:103D7000B561FCF7EBFD79780A2251434018E06009
:103D8000F8BD6160F8BDB561F8BD00008AB00025DE
:103D9000FCF7EAFDFEF72AFCFCF70EFDFCF7AEFC93
:103DA0006846FCF743FB6846007B01260024AA28EE
:103DB00022D1BB20694608736846FCF751FBF64FD9
:103DC000F6493420089709960794C86006A907A801
:103DD000FCF772FA0698401C0CD1F14900234A689E
:103DE0000868896850404840EE4942183946022028
:103DF000FCF796FCFCF768FCFCF776FCFCF75AFC39
:103E00000024E948009401940294039404944069C6
:103E10000121C9040843E449486148690121C904F2
:103E200008400590E0484069C9000843DE49486100
:103E300048690121890508400590DB48406949111E
:103E40000843D9494861486901214904084005905F
:103E5000D548416901208004D34A01435161516929
:103E6000012201400591812109200902C006FCF7C9
:103E700067FD0720400303270090694601970294DD
:103E8000CA48FCF7ABFC00976946C9480197029401
:103E9000FCF7A4FCC74800900920694601970294EA
:103EA000C006FCF79BFCC448009069460197029449
:103EB000C248FCF793FC8120000200900920029484
:103EC000694601960394C006FCF788FC0094012122
:103ED000BB480194029403940494890705940160FB
:103EE0002F21846041600461611E8461C160FDF71F
:103EF00088FF0120000300906946B148FDF7B8FF34
:103F0000049404A9AE480594FDF756FFAC48FDF7AC
:103F1000A3FFFFF757FEAB48FFF7B4FE0021A94807
:103F2000FFF7DCFEA849A948FFF718FCA748FFF7F0
:103F3000A4FBC82000F08AF9A54C6060C82000F0FE
:103F400085F9A060C82000F081F9E06094484268DB
:103F50000168806851404140924808188E490968BC
:103F6000884205D11821C820FCF70DF9074604E066
:103F700018216420FCF707F9074600261820704333
:103F8000C119606800F09CF9761CC82EF6D3002297
:103F900090499148FEF745FF90498F48FFF71BF97C
:103FA000884B8D48A2686168FEF71EFE874A002193
:103FB0008948FEF76DFE8848FFF726F9092601219A
:103FC000F6060022C9033046FCF7BAFCFF2701378A
:103FD000B7621E20FCF762F9B7616420FCF75EF956
:103FE000B7621E20FCF75AF9B7616420FCF756F956
:103FF000A06800F03AF9060036D001467348FFF792
:1040000020FD00282CD02078002821D000203070FE
:104010007070B070F07001208007406A3075010A3E
:104020007175010CB175000EF0756B48FEF7C0FD9F
:10403000022805D031466848FEF7FCFD002802D072
:104040003146E06801E03146606800F039F903E08C
:104050003146606800F034F95A48FFF7FEFD03E08E
:104060003146A06800F05BF95B48FEF7A7FE002828
:104070000ED0E06800F0F9F8060009D00146564875
:10408000FEF7D8FD002831463CD0E06800F047F943
:104090004E48FFF793FB002842D0606800F0E5F837
:1040A000060039D001464948FFF772FC002833D09A
:1040B00001208007406A3075010A7175010CB175E5
:1040C000000EF0750020C0433070010A7170010CC1
:1040D000B170000EF07000207072B072F0723E4845
:1040E000FEF766FD0228314610D03B48FEF7A2FDE0
:1040F000002831460ED0E06800F0E2F83148FFF7C2
:10410000ACFD0DE0606800F0DBF8C1E7E06800F0AE
:10411000D7F8F3E76068EFE73146606800F0D0F861
:104120002A48FFF718FB0746A84230D0606800F025
:104130009CF806002BD001208007406A3075010AE8
:104140007175010CB175000EF075324639461F4885
:10415000FFF73AFB002816D01F48FEF729FD02287A
:1041600031460AD01C48FEF765FD0028314608D0CC
:10417000E06800F0A5F83D4609E0E06800F0A0F82E
:10418000F9E76068F5E73146606800F099F80D4896
:10419000FFF7A9FD2CE7000000F001080020024015
:1041A000ACF7FF1FBBB00100001002400008004840
:1041B00000140048FF060000FFFC00000004004857
:1041C000DC0300209001002000640040AC010020CE
:1041D0000000002014000020B8010020480000204A
:1041E000F0B50B30C108C900144F0026144A0FE087
:1041F00003688B420BD38B4205D95C1A4318456880
:1042000030C3083B00E04368136002C004E0021DB5
:1042100010680028ECD13046002803D13868002807
:1042200001D00020F0BD064A06481060064A121A66
:10423000D208D20044C001203860D7E78C010020AA
:1042400088010020640800206028002070B5054621
:1042500010210120FBF797FF044604212846FBF7B5
:1042600092FF2560E060204670BDF8B50546EFF38B
:10427000108472B600268768002F0AD06868E96843
:1042800082008E58401C2968FBF732FF7F1EAF600A
:10429000696084F310883046F8BD70B585680026E3
:1042A0000446002D0AD06068E16882008E58401CE8
:1042B0002168FBF71DFF6D1EA5606160304670BD73
:1042C00070B505460E460020EFF3108472B62A68DA
:1042D000A96891420BD2686840181146FBF708FFA5
:1042E000E86889004650A868401CA860012084F353
:1042F000108870BD70B504460D462268A168002084
:1043000091420BD2606840181146FBF7F1FEE0685D
:1043100089004550A068401CA060012070BD30B4E9
:104320000023EFF3108272B685680468A5420CD2B0
:104330004368002B0ED05B1E43604468C368A40032
:1043400019518168491C0123816082F3108830BCB7
:1043500018467047641E4460EFE70000000020002C
:1043600000000D000000F3000000006CDC02010002
:104370000000100000000100000008000000040020
:104380000000010000000004000001000000000027
:1043900000000000000001020304060708090000F5
:1043A000C04300080000002090010000C801000880
:1043B000C044000890010020D02E00006C36000898
:1043C000021301134D281B0881041A8D041AA50439
:1043D0001AC1041A25041A59041704030904120106
:1043E00032022640501D6F601C0102034513792DD7
:1043F0001C08E12930122C42081AF90C1A8D041AF3
:104400009D045A2114411BA52B245904412AC90893
:1044100035010A020A1409022013010125804B0903
:10442000041502FFFFFF1C0705811419072A020764
:104430001412034D12531246125412311A3002193B
:104440001311422813010479C80008100157494E7E
:104450005553423A921C1A052832883207122A1202
:10446000441265127612691A63081249126E1A74A0
:1044700008127212663A611212471A551612443225
:104480007332501A7B1612311235126212341A33FB
:104490007E12381A2D0612341A640E1A2D1A1A3189
:1044A000341A360A1A62101A65441A2D0E1A303060
:1044B0001A371A12383A391E3A343CC27DD3127A6E
:020000040801F1
:04F800000000000004
:04000005080000C12E
:00000001FF
