:020000040800F2
:1000000088200020D5000008A91E00088B1D0008CC
:1000100000000000000000000000000000000000E0
:100020000000000000000000000000007B2200082B
:100030000000000000000000792200087D22000876
:10004000E7000008E7000008E7000008E7000008F4
:10005000E7000008E7000008E7000008E7000008E4
:10006000E7000008E7000008E7000008E7000008D4
:10007000E7000008E7000008E7000008E7000008C4
:10008000E7000008E7000008E7000008E7000008B4
:10009000E7000008E7000008E7000008E7000008A4
:1000A000E7000008E7000008E7000008E700000894
:1000B000E7000008E7000008E7000008FD3100083D
:1000C0000348854600F080F80048004705380008DE
:1000D000882000200448804704480047FEE7FEE7E8
:1000E000FEE7FEE7FEE7FEE711230008C100000877
:1000F00030B50B46014600202022012409E00D46C0
:10010000D5409D4205D31D469540491B2546954047
:1001100040191546521E002DF1DC30BD10B5202AC5
:1001200004DB0846203AD040002110BD0B46D340E6
:10013000D0402024A21A91400843194610BD03461E
:100140000B439B0703D009E008C9121F08C0042A0B
:10015000FAD203E00B780370401C491C521EF9D2FE
:100160007047D2B201E00270401C491EFBD27047BA
:100170000022F6E710B513460A4604461946FFF773
:10018000F0FF204610BD10B54843044603F064FC60
:10019000002805D00021002C02D0641E0155FAE78A
:1001A00010BD0321001D401E037812021A43491E90
:1001B000F9D510467047034603220870000A491C0F
:1001C000521EFAD518467047064C0125064E05E02A
:1001D000E36807CC2B430C3C98471034B442F7D368
:1001E000FFF772FF5C3C00087C3C000870B58C187F
:1001F0000578401C6B075B0F01D10378401C2A1166
:1002000006D10278401C03E006780E70401C491CA1
:100210005B1EF9D12B0705D40023521E0DD40B70A1
:10022000491CFAE70378401CCB1A921C03E01D78A6
:100230000D70491C5B1C521EF9D5A142D8D3002079
:1002400070BD000006490020C8610648016904220B
:1002500011430161016940221143016170470000AF
:100260006808002000200240F8B52449096A0143CB
:100270000804060E0802050ECFB20C0E204800F04E
:1002800015F9002839D11F49C86100F095F90028F7
:1002900033D11A490A6910231A430A61FF2F08D083
:1002A0001948018939430181154800F0FFF80028F9
:1002B0001ED1FF2E08D01448418931434181104896
:1002C00000F0F4F8002813D1FF2D08D00E488189E2
:1002D000294381810A4800F0E9F8002808D1FF2C61
:1002E00006D00948C1892143C181054800F0DEF8E4
:1002F00002490B69102293430B61F8BD00200240B4
:1003000050C300006808002000F8FF1FF8B524491A
:10031000096A81430804060E0802050ECFB20C0ECE
:10032000204800F0C3F8002839D11F49C86100F007
:1003300043F9002833D11A490A6910231A430A6184
:10034000FF2F08D01948018939400181154800F074
:10035000ADF800281ED1FF2E08D014484189314045
:100360004181104800F0A2F8002813D1FF2D08D0D9
:100370000E488189294081810A4800F097F80028B9
:1003800008D1FF2C06D00948C1892140C181054808
:1003900000F08CF802490B69102293430B61F8BD01
:1003A0000020024050C300006808002000F8FF1F32
:1003B0000648C06906210840022803D0042803D05B
:1003C000AA207047BB207047CC2070470020024015
:1003D000F8B5134E0746304600F068F800281ED1E5
:1003E0001049C861104C20692025284320612069EC
:1003F000402108432061304600F058F82169A943A4
:10040000216100280BD1206910252843206107486D
:100410000780304600F04AF82169A9432161F8BD00
:1004200050C30000680800200020024000F8FF1FB1
:10043000064A0021D16106490A6902231A430A616A
:10044000486108694022104308617047680800202D
:100450000020024010B5054B0022DA61044A1369FE
:10046000012423431361018010BD000068080020AF
:100470000020024010B50B4A0020D168CB060A4983
:1004800004D5C86902231843C8611020D3685B07EC
:1004900005D5CB6901242343CB6104210843D060F7
:1004A00010BD0000002002406808002070B505461D
:1004B00000F05AFA0646104C0AE0681C08D0002DDD
:1004C00004D000F051FA801BA84201D9032070BD6E
:1004D000E068C007F1D1E068800601D52020E06027
:1004E000E068C00602D4E068400703D5FFF7C2FF0A
:1004F000012070BD002070BD0020024031B500F029
:1005000033FA009C0546601C00D0641C00F02CFAF5
:10051000401BA042FAD338BDF8B5054623480F4624
:10052000017E012601290BD0012101762868204C8B
:10053000012807D02046FFF7B9FF002813D030E08C
:100540000220F8BD2046FFF7B1FF002829D1FFF7B0
:1005500079FE2046FFF7AAFF0646164801690422E5
:10056000914301611DE00020C04338606C6812E0D7
:100570002046FFF75DFF0E48FFF798FF06460D483F
:10058000026902218A430261002E01D03C6008E02A
:100590000120C0022418A868C10268680818A04297
:1005A000E6D80248002101763046F8BD68080020F0
:1005B00050C3000000200240F8B5FFF7F9FE0F4FCE
:1005C000C6B23846FFF772FF002815D10C49C86142
:1005D0000C4C2069202528432061206940210843D4
:1005E00020613846FFF762FF2169A9432161002895
:1005F00002D13046FFF7ECFEF8BD000050C300000A
:10060000680800200020024070B504460720064D0F
:100610002060286AA060FFF7CBFE2073E86977218D
:10062000000A0840607370BD00200240F8B52E4DEE
:100630000446297E012001290FD001212976217845
:100640000027C90700290DD060680128A06806D0DE
:10065000FFF70AFE002844D104E00220F8BDFFF7AE
:1006600055FEF7E72178890704D5207BFFF7B0FE18
:10067000002836D121781D4E490719D5607B00909E
:100680001B48FFF713FF002810D1EF6130691021DC
:10069000084330610098882108431649488014486F
:1006A000FFF704FF3169102291433161002818D10E
:1006B0002178090715D520690090247D0C48FFF7A3
:1006C000F5FE00280DD1EF6130691021084330613B
:1006D000009804800648FFF7E9FE326910218A433A
:1006E00032612F76F8BD000068080020002002402B
:1006F00050C3000000F8FF1F034801698022114326
:1007000001610020704700000020024010B505483C
:10071000016901225203114301610348FFF7C6FE3C
:1007200010BD00000020024050C3000003480169D2
:1007300042159143016100207047000000200240F3
:1007400005480169890505D404498160044981602F
:1007500000207047012070470020024023016745B8
:10076000AB89EFCDF0B51FB407461A480024017ECF
:1007700015461E46012907D0012101761648FFF7CC
:1007800095FE002803D020E0022005B0F0BD012F27
:1007900002D0022F00D00427220128463146FFF75D
:1007A000BDFC81B2019862001018FFF753FE0A48A1
:1007B000FFF77CFE09490A69520852000A610028C5
:1007C00003D1641CE4B2BC42E6D3024900220A769B
:1007D000DBE700006808002050C300000020024052
:1007E00005480169090605D504494160044941608D
:1007F0000020704701207047002002402301674518
:10080000AB89EFCDF8B5002393E0224601249C404C
:10081000A44622407ED04C68022C01D0122C0CD170
:10082000DC08A40027183C6A5D07ED0E0F26AE40D9
:10083000B4430E69AE4026433E6205685E00032461
:10084000B4400F79A543BF07BF0FB7402F430760E0
:100850004D68012D05D0022D03D0112D01D0122D90
:100860000ED18568CF68A543B7402F43876047689E
:100870006546AF430D79ED06ED0F9D403D43456064
:10088000C568A5438C68B4402C43C4604C68E40040
:100890004ED52B4CA56901263543A561A4699D0859
:1008A00034400094274CAD002F19BC689D072E0FD3
:1008B0000F25B540AC430925ED06A84201D100251E
:1008C00014E0214DA84201D101250FE01F4DA8429F
:1008D00001D102250AE01E4DA84201D1032505E001
:1008E0001C4DA84201D1042500E00525B540254353
:1008F000BD60194C25684E689543F60300D5154335
:10090000256065684E689543B60300D5154365605C
:10091000A56800E00CE04E689543F60200D515434B
:10092000A560E5684E689543B60200D51543E560BD
:100930005B1C0A681446DA4000D066E7F8BD000088
:100940000010024000000140000400480008004878
:10095000000C00480010004800040140002A01D0AB
:1009600081617047816270470148006870470000EC
:10097000A801002002480168491C0160704700007E
:10098000A801002010B5064801681022114301603B
:10099000002000F007F800F017F8002010BD00005C
:1009A0000020024010B5044600F0CEFE7D21C900B3
:1009B000FFF79EFB01F0FEF800222146501E00F0DA
:1009C00021F8002010BD000008B508488169012207
:1009D00011438161816911400091C26901040A4398
:1009E000C261C0690840009008BD000000100240CC
:1009F000C106C90E01208840014908607047000007
:100A000000E100E010B501F051FA10BD10B50C0680
:100A100006D54906490E1C2461430818283004E015
:100A20001C2461430818FF30093099B2002A06D00F
:100A300001228272C180190C0181002010BD0022A8
:100A400082728180F9E71C224A43121810B5FF30E8
:100A5000FF300230926BC06902F0CBF810BD1C224F
:100A60004A43121810B5FF30FF32FF300132023016
:100A70009269C06902F018F910BD0000F0B54A068D
:100A8000520E13461C256A43CC091218002C01D0C3
:100A9000283201E0FF32093204461370C909FF34DD
:100AA0005170E134217A01293DD001212172957ADA
:100AB000494B002D4949557837D0002D05681678E7
:100AC000AC465BD0B600AD5B6F0404D5444F0D401F
:100AD0003D436746BD5305681678AC46B600AD5B2E
:100AE0006F0605D53C4F0D4040373D436746BD532B
:100AF00015780668AF00F55B0D4039490D43F55395
:100B0000364F117830373D40066889001D437552D5
:100B10001178334A00688900F13A15401D43455267
:100B200000202072F0BD0220F0BD002D056816786F
:100B3000AC4610D0B600AD5B6F0605D50D4026491A
:100B400040310D4361468D5305681078234A81007A
:100B5000685A30320EE0B600AD5B6F0404D50D402C
:100B60001F490D4361468D53056810781C4A81006A
:100B7000685AF13A104018436852D1E7B600AD5BAD
:100B80006F0404D5164F0D403D436746BD530568BD
:100B90001678AC46B600AD5B6F0605D50E4F0D401E
:100BA00040373D436746BD5315780768AE00BD5BCF
:100BB0000D40094940310D43BD53094F1678F13FAF
:100BC0003D400168B6001D438D531178034A8900EA
:100BD00000683032A1E70000808000008F8F0000A5
:100BE00080C00000F0B54B06CA095B0E002A04D095
:100BF0001C225A431218283204E01C224A431218BD
:100C0000FF3209320024947013700346C909FF3380
:100C10005170E133197A01291AD0012119725178E2
:100C20001A4C00291178066814D08D00715B4F06AC
:100C300003D52140164C21437153117800688A0076
:100C4000124C815A3034214010246140202414E099
:100C50000220F0BD8D00715B4F0403D521400D4C87
:100C600021437153117800688A000A4C815AF13C83
:100C7000214001242403614064006140044C403C55
:100C80002143815200201872F0BD00008F8F0000B8
:100C9000C080000080C000004906490E1C2251435C
:100CA0000818FF300130008C80B27047F0B54D0657
:100CB0006D0E2E461C246543CF092C18002F01D041
:100CC000283401E0FF3409342670C90961700146F7
:100CD000FF31E260E131E3708C46097A01290DD0E1
:100CE000012261460A72E2789349002A08D0012A5B
:100CF00020D0022A0DD0032A25D111E00220F0BD18
:100D0000237802689B00D55A0D40FF35FF35023528
:100D100004E0237802689B00D55A0D40D55212E0BA
:100D20002278036892009D5A0D40032149026918F8
:100D3000995208E0237802689B00D55A0D400121A2
:100D400089026918D15226780768B5007B5B7B4918
:100D50007B4A0B40134333437B53A57A002D53D07A
:100D60002578784E0B400768AD0033437B53E3880A
:100D700050265D0803686D00F65AF6182378DF00E8
:100D800001239B02FB18F552238950265D08036856
:100D90006D00F65AF6182378DF005311FB18F55250
:100DA00063780768002B237875D09D007B5B5E0419
:100DB00003D5654E0B4033437B53237807689D0072
:100DC0007B5B5E0604D55E4E0B40403633437B535F
:100DD000237805689E00AB5B0B405B490B43AB532C
:100DE000564E2178303633400568890013436B52E4
:100DF0002178554C00688900F13C2340134343524D
:100E0000002061460872F0BD6378002BA3881FD0D4
:100E10005D0803685026F65A6D00F6182378DF0047
:100E200001239B02FB18F552237807689D007B5B2A
:100E30005E0604D50B40424940310B437B530168A9
:100E400020783E4C8300C85A30342040202440E0B3
:100E50005D0803685026F65A6D00F6182378DF0007
:100E60003A4BFB18F55203685025ED5A374EEB18F4
:100E70002578B61CED00AD195E19E3683E2B0BD941
:100E8000DD022D0CDB0601D16D1EADB2AB020125DA
:100E9000ED032B4307E020E0DD032D0CDB0701D041
:100EA0006D1CADB2AB023380237807689D007B5B7D
:100EB0005E0403D50B4024490B437B530168207823
:100EC000214C8300C85AF13C204001242403604097
:100ED000640060401043C85292E79D007B5B5E0453
:100EE00003D5194E0B4033437B53237807689D008D
:100EF0007B5B5E0604D5124E0B40403633437B537A
:100F0000237805689E00AB5B0B400D4940310B43D5
:100F1000AB530D4E2178F13E33400126360373402A
:100F2000760073400568890013436B522178034CA7
:100F300089000068303460E78F8900008F8F0000DF
:100F4000808000008081000080C000000404000058
:100F5000F0B54D066D0E1C246C432418FF34093483
:100F6000636122610022A26162702570E5681E46FD
:100F7000AB4201D92B46F21A6261A67A49060122D8
:100F8000890DD203002E2F4D06680CD05027BF5B71
:100F9000BE192F1FC91976183E2B15D9D902090C75
:100FA000DF060CD00DE05027BF5B4919BE1975183C
:100FB00020E08902114300E08902298032E0491EC5
:100FC00089B28902114306E0D903090CDF0701D079
:100FD000491C89B2890231806178002902D0012937
:100FE00018D01FE001685026765A71182678F6004E
:100FF00075194D193E2B06D9D902090CDB06D8D13B
:10100000491E89B2D5E7D903090CDA07D4D0491CA7
:1010100089B2D1E701685022525A51182278D20081
:1010200052198B5201682078074B8200885A184069
:1010300001231B0358405B005840044B184388525F
:101040000020F0BD060400008FBF0000808000007B
:10105000F0B50246FF32E132137A012B0BD00124A6
:101060004F06CB097F0E1472002B06D01C237B4346
:101070001B18283306E00220F0BD1C234B431B182D
:10108000FF3309339C701F70CE095E700124240366
:101090001025114B002F0BD04906C90D002E10D082
:1010A00004680E4E605A304068401843605210E0A9
:1010B00001680B4E08883040604068401843088043
:1010C00007E00568064E685A303E304060401843DD
:1010D000685200201072F0BD80800000BF8F0000B9
:1010E000BFBF0000F0B506461D464806400E1C2353
:1010F00043439C19E563A263002222640123283440
:1011000063702070E0682B46854203D90546181AA3
:10111000606100E06261A07A2A4F002810D0227836
:1011200030689200825C49065206890D002A16DA60
:101130005022125A10183A1D89184552228914E07B
:10114000ABB2A2882169306801F083F83068502181
:10115000095A08182178C900C919455220E05022BF
:10116000125A1018C9194552E288ABB22169306889
:1011700001F06FF861781448002902D0012907D0E6
:101180000EE0217832688B00D15A01400F4805E00B
:10119000217832688B00D15A01400D480143D15269
:1011A000207831688200084B885A30331840102369
:1011B000584020235840054B403B1843885200209C
:1011C000F0BD0000020400008F8F0000C08000000E
:1011D00080C0000070B50446006840308088C00BB5
:1011E00002D0204600F084FE206840308188490506
:1011F0000AD58188334A11408180204600F0DAF810
:101200000021204600F0F2F820684030818849042F
:1012100003D581882C4A1140818020684030818824
:10122000890403D58188294A114081802068403093
:1012300081880425C904002910DA0188A9430180A6
:10124000BD202168000240310880204600F0BEF831
:101250002068403081881E4A1140818020684030DB
:101260008188090517D581881A4A11408180206834
:1012700040300188082211430180206840300188F5
:1012800029430180206840308088C043C00402D5D3
:10129000204600F0F3F8206840308188890506D5A3
:1012A00081880D4A11408180204600F097F820681F
:1012B00040308188C90503D58188084A1140818062
:1012C00070BD0000FFFB0000FFBF0000FFDF00005B
:1012D000FFEF0000FFF70000FFFD0000FFFE000031
:1012E000F8B500270446002807D02646FF36E13629
:1012F000707A0025002802D005E00120F8BD357283
:10130000204600F03BF80320707201210BE01C2006
:10131000784302191046203041720772C572556336
:1013200095637F1CD5636068B842F0D800200BE05D
:101330001C2242431219FF32013255721072D572CB
:1013400055619561401CD56162688242F0D8206881
:101350004030018020684030058020684030858022
:10136000206840300582BF20226800024032108091
:101370002034257171720020F8BD000008B50068A6
:101380000A49884210D10A48C2690121C9050A43A5
:10139000C261C06900220840009001211F20FFF7B0
:1013A00031FB1F20FFF724FB08BD0000005C00405C
:1013B0000010024010B5C41DFF34FA340121E06969
:1013C00001F04BFDE06901F010FD10BDFF3010B5DC
:1013D000FF300230C06901F02BFD10BDFF3010B5A9
:1013E000FF300230C06901F029FD10BD0246FF3216
:1013F000E132137A012B08D001231372002906D0A1
:101400002030017100201072704702207047006880
:10141000802140308181F5E7F8B5C61DFF36FA36E8
:10142000F46941203146C000143920180746009164
:1014300001F071FDE51DFF35FA35297A0020C90656
:1014400003D13946204601F015F9297AC906C90E9B
:10145000012903D13946204601F030F9002803D193
:10146000F069009901F005FDF8BD00684030018B7E
:101470000122D2031143018300207047FF3010B5D1
:10148000FF300230C06901F035FD10BD0F490B6916
:10149000CA0313430B610B6993430B6106C81143E5
:1014A0000268114342680A4301890B040849134347
:1014B0004B600A683F231B02C0689A430002024344
:1014C0000A600868602210430860704700100240FC
:1014D000006C0040F8B504460068434DC00352D587
:1014E000E8690026C00007D4E96928040143E961DE
:1014F000E9690140012600913C480168C90510D402
:101500000168821511430160FFF72EFA074604E0D7
:10151000FFF72AFAC01B642824D834480068C005A5
:10152000F6D5286A03273F02384020D06168394049
:1015300081421CD0286A2A6AB843012109040A435F
:101540002A622A6A8A432A622862C0070FD0FFF7FC
:101550000BFA009008E0FFF707FA0099411A2448B7
:10156000814201D90320F8BD286A8007F3D5286A93
:101570006168B84308432862002E04D0E86901215D
:1015800009078843E8612078C00705D0286BA16867
:1015900080088000084328632078800706D5286BE0
:1015A000032109048843E168084328632078800602
:1015B00005D5286B102188432169084328632068DA
:1015C000800305D5286B80218843A16908432863DF
:1015D0002088400505D5286B402188436169084370
:1015E00028630020F8BD0000001002400070004099
:1015F00088130000F8B505464E480E460068C0073F
:10160000C00FB0420AD24B48016849084900314333
:1016100001600068C007C00FB04270D12878464C06
:10162000800705D56068F0218843A9680843606099
:101630002878C00753D06868012817D0022818D02E
:10164000032819D021688907002958DA61688908B8
:10165000890001436160FFF787F96968074601293E
:1016600013D002291DD0032927D034E02168890333
:10167000EAE721688901E7E7616BC903E4E7FFF75F
:1016800073F9C11B2D48814223D860680007800F81
:101690000128F4D123E0FFF767F9C11B27488142F5
:1016A00017D860680007800F0228F4D117E0FFF711
:1016B0005BF9C11B214881420BD860680007800F8D
:1016C0000328F4D10BE0FFF74FF9C11B1B488142FF
:1016D00001D90320F8BD60680007800FF3D11548D9
:1016E0000168C907C90FB1420BD90168490849000F
:1016F000314301600068C007C00FB04201D0012033
:10170000F8BD2878400706D560680721090288439C
:10171000E9680843606000F01DF86168084A09063E
:10172000090F515CC840074908600020FFF73AF9EB
:101730000020F8BD00200240001002408813000085
:101740004C3C0008AC0100200148006870470000D4
:10175000AC01002030B516A30FCB89B06C460FC486
:1017600017A30FCB0FC41A494A680C201446044033
:101770001848042C05D0184B082C04D00C2C00D190
:10178000184609B030BD9402240F6D462C5DC96A1D
:1017900004AD0907090FD203695C920F022A02D037
:1017A000032A00D11846FEF7A3FC6043E9E70000D6
:1017B00002030405060708090A0B0C0D0E0F101092
:1017C0000102030405060708090A0B0C0D0E0F1091
:1017D0000010024000127A00006CDC02FEB50446E4
:1017E0000078F04EF04DC00748D068680007800FC1
:1017F00001281FD068680007800F022804D168689C
:10180000C003800F022815D06168012919D001207A
:101810008004002901D0052917D02968B143296027
:10182000296881432960606800281BD0FFF79CF875
:10183000074613E02868800320D56068002876D02A
:101840001CE0286830432860EDE7296801432960DF
:10185000F7E7FFF789F8C01B642869D82868800378
:10186000F7D50BE0FFF780F8074604E0FFF77CF8B8
:10187000C01B6428F1D828688003F7D4207880073B
:101880003ED568680007800F14D068680007800F95
:10189000022804D16868C003800F01280AD0E068DC
:1018A000002828681DD0012108432860FFF75CF854
:1018B00007460BE0286880070BD5E068012836D181
:1018C00007E0FFF751F8C01B0228C6D82868800738
:1018D000F7D52868F82188432169C90008432860A2
:1018E0000EE0400840002860FFF73EF8074604E09D
:1018F000FFF73AF8C01B0228AFD828688007F7D452
:101900002078000724D5E0690028686A11D00121F9
:1019100008436862FFF728F8074604E0FFF724F859
:10192000C01B022899D8686A8007F7D510E036E115
:10193000D1E0400840006862FFF716F8074604E06F
:10194000FFF712F8C01B022887D8686A8007F7D40F
:10195000207804274007002861DA00200190E86918
:10196000C00008D4E969B8060143E961E9690140AA
:101970000120009101908D480168C90511D40168CA
:10198000821511430160FEF7EFFF009005E0FEF7BE
:10199000EBFF0099401A642897D884480068C00576
:1019A000F5D5A06801280AD0002801D0052811D05B
:1019B000286A400840002862286AB84302E0286A82
:1019C000012108432862A068002812D0FEF7CCFF4E
:1019D00000900AE0286A38432862F0E7FEF7C4FF67
:1019E0000099411A7248814275D8286A8007F5D556
:1019F0000DE0FEF7B9FF009006E0FEF7B5FF009995
:101A0000411A6B48814266D8286A8007F5D401984C
:101A1000002804D0E969012000078143E9612078AA
:101A2000C00635D5606901280CD0401D686B24D0F4
:101A300038436863686B400840006863FEF794FFB2
:101A4000074622E0686B38436863686B01210843EE
:101A50006863FEF789FF074604E0FEF785FFC01BB9
:101A6000022838D8686B8007F7D5686BF82188435F
:101A7000A169C900084368630AE0B8436863F4E7F2
:101A8000FEF772FFC01B022825D8686B8007F7D4C9
:101A90002078800637D568680007800F032813D0A8
:101AA00068680007800F022804D16868C003800FAF
:101AB000032809D0206A0028686B16D03043686379
:101AC000FEF752FF06460CE0686BC0031BD5206A88
:101AD000012864D117E05BE0FEF746FF801B022877
:101AE00056D8686BC003F7D50DE0B0436863FEF7C6
:101AF0003BFF064604E0FEF737FF801B022847D86D
:101B0000686BC003F7D4606A002846D0696809078B
:101B1000890F022943D0012636060228286805D0FD
:101B2000B0432860FEF720FF044633E0B04328604E
:101B3000FEF71AFF074604E0FEF716FFC01B022857
:101B400026D828688001F7D4E86A216B00090001D3
:101B50000843E862A16AE06A084369687B22D2030D
:101B6000914308436860286830432860FEF7FCFE14
:101B7000044604E0FEF7F8FE001B022808D8286897
:101B80008001F7D509E0FEF7EFFE001B022801D91E
:101B90000320FEBD28688001F5D40020FEBD012091
:101BA000FEBD000000000100001002400070004077
:101BB00088130000094910B5401E884201D9012050
:101BC00010BD074C60610321081F00F06FF9002071
:101BD000A06107202061002010BD0000FFFFFF0072
:101BE00000E000E070B502462032137F012B1BD0CD
:101BF0000123137702245477046865687026B5437F
:101C00006560046865680E68354365600468A568AA
:101C10008026B543A5600068846849680C438460E9
:101C200053770020107770BD022070BD70B504009E
:101C300005D025462035687F002802D006E0012027
:101C400070BD00202877204600F00AF8022068774F
:101C5000211D206800F08AFB01206877002070BDFC
:101C600008B5006801218907884207D10448C16985
:101C700001221143C161C0691040009008BD0000FD
:101C8000001002400222014620314A7702681368A0
:101C9000012003431360487700207047F8B50546DC
:101CA00004462035287F012817D001272F770220EE
:101CB0006877226890687726FF23B0431B02984319
:101CC00090600868502837D00EDC202857D006DCFA
:101CD00000284ED0102840D14EE00220F8BD302818
:101CE00050D0402839D13CE060282DD0702817D042
:101CF00001221203801A0ED090422ED1CB684A687E
:101D00008968206800F07CFB2068816801229203CA
:101D10001143816021E020688168C908C900F8E7A3
:101D2000CB684A688968206800F06AFB2168886887
:101D3000B0433043886010E0CA684968206800F00A
:101D400072FB5021206806E0CA684968206800F0EC
:101D50007BFB6021206800F05EFB6F770020287716
:101D6000F8BDCA684968206800F05DFB4021206822
:101D7000F1E700212068EEE710212068EBE7202141
:101D80002068E8E730212068E5E7FEE7F0B587B096
:101D900014216846FEF7ECF9294842690121C9047B
:101DA0000A43426142690A4005924269C9000A43F6
:101DB000426142690A400592426949110A434261FF
:101DC00042690A400592426949000A4342614069FA
:101DD0008126084009273602FF0605900122314678
:101DE0003846FEF7BBFD0720400303250024009082
:101DF0006946019502941348FEF704FD0095694673
:101E0000114801950294FEF7FDFC104800906946C8
:101E1000019502943846FEF7F5FC0D48009069469E
:101E2000019502940B48FEF7EDFC0120019002940D
:101E30006946009603943846FEF7E4FC07B0F0BD0F
:101E4000001002400008004800140048FF0600008F
:101E5000FFFC00000004004810B586B00024009488
:101E60000121104801940294039404948907059475
:101E700001602F21846041600461611E8461C16042
:101E8000FFF7D4FE01200003009069460548FFF7E4
:101E900005FF049404A903480594FFF7A3FE06B0C8
:101EA00010BD000008040020704700008307FF22D7
:101EB000DB0E9A408907090E994000280BDA0007CB
:101EC000000F0838830808489B001818C36993431B
:101ED0000B43C3617047830804489B001B181868B4
:101EE000904308431860704700ED00E000E400E014
:101EF000F0B585B004460020694688802646203625
:101F000078E19A8917073F0F26D0B9000291425A0B
:101F10009A80998809047DD5BE490A4002994252A7
:101F200038461C2148430519FF350935A87A002891
:101F3000206870D029788A00825A52046CD55022C9
:101F4000125ACB00B44912185918515A8905890DF3
:101F500000917DD0EA88BDE09A89D20627D4018815
:101F6000AE4A25461140018020685021095A283583
:101F700008182978CA00A8495118405A8005800DD0
:101F80002064A16B0818A06300212046FEF75BFDCA
:101F900030790028B4D068690028B1D13079802127
:101FA00008432168403188810020307122E12546B4
:101FB000FF35028809359A809B881B0519D5098A47
:101FC00009182878C2009448001D1018085A29469C
:101FD00083059B0DAB61AA88E431206800F024F9E9
:101FE00020688C4A0188114001802046FFF714FACE
:101FF00000E1694689880904D8D58649864F0A4098
:10200000028020685021095A3F1D09182878C00015
:10201000C01902E085E03DE04FE0085A83059B0DC2
:10202000AB6108D0AA882969206800F0FDF8A96989
:1020300028694018286100212046FEF710FD20681D
:1020400001464030008A4018C119E8683E2800E087
:1020500044E00AD9C202120CC00601D1521E92B24B
:1020600090020122D203104306E0C203120CC00703
:1020700001D0521C92B2900208802168684A0888F8
:10208000104001221203504052005040654A104354
:102090000880AFE05021095A0A182978CB005E4920
:1020A000091D5918515A8905890D009121D0AA8816
:1020B0002969009B00F0B8F81BE05022CB00125AAF
:1020C00055491218091D5918515A8905890D009151
:1020D00004D02A892969009B00F0A6F82978206895
:1020E0008A004E4B815A803319404E4B403319437E
:1020F0008152A96900980818A861296900980A18EE
:102100002A616B69002B03D0E9680098814204D9E9
:1021100029782046FEF7A3FC03E029782046FEF745
:1021200017FF68468088000664D51C204743206856
:1021300002993A4A415A3D191140029A2835815272
:10214000A87A0028206811D029788A00825C52067B
:102150001ED55022125AC90012182F480818105ABA
:1021600083059B0DAB6124D0EA881EE05021095AFB
:1021700009182878C20028481018085A83059B0DB2
:10218000AB6121D0AA882969206800F062F81BE0C1
:102190005022125AC90012181F48001D0818105A60
:1021A00083059B0DAB6104D02A892969206800F062
:1021B00050F8287822688000184B115A8033194053
:1021C000174BF1331943115220685021095A09184D
:1021D0002878C20010481018085A8005800DA861A0
:1021E00029690A182A616B692978002B20460DD0CD
:1021F000FEF778FF2068014640318A886B469A8155
:10220000120400D57DE6002005B0F0BDFEF71BFCF2
:10221000F0E700008F0F0000020400000F8F0000A5
:102220008FBF000080800000101810B501229202BC
:102230005C088018002C07D002880A70120A4A70C5
:10224000801C891C641EF7D1DA0701D00078087061
:1022500010BD101801225B1C920210B55B0880189B
:10226000002B08D04A780C78120222430280801C8E
:10227000891C5B1EF6D110BD7047704710B5FEF784
:1022800079FB10BD30B59FB034216846FDF770FF73
:1022900000241394149415941C2117A81694FDF788
:1022A00067FF18210DA8FDF763FF01202025089086
:1022B000009509946846FFF791FA072013900320D0
:1022C000149015940121169413A8FFF793F928038D
:1022D00017901D9417A8FFF7FDF80B48C269C103BA
:1022E0000A43C261C0690D9408401E9088000E9098
:1022F00006481090222011900F9412950DA8FFF718
:10230000C5F81FB030BD0000001002407FBB0000C8
:10231000124801680122114301604168104A1140CE
:10232000416001680F4A1140016001680122920476
:102330009143016041683F22120491434160C16AA8
:1023400009090901C162016B074A11400163416B30
:102350004908490041630021816070470010024034
:102360000CB8FF08FFFFF6FE2CFEFCFFF0B502687C
:102370001D4B0124A4071D4D984203D0A04201D05B
:10238000A84203D17026B2434E683243184E194F0B
:1023900098420DD0A0420BD0A84209D0164CA042C2
:1023A00006D0B04204D0B84202D0144CA04204D1AE
:1023B00003242402A243CC6822438024A2434C6914
:1023C000224302608A68C2620A688262984206D02A
:1023D000B04204D0B84202D0084A904201D1096903
:1023E000016301214161F0BD002C01400004004067
:1023F00000400140004401400020004000480140EE
:1024000030B58468FF252D021B021343AC430B43F8
:102410002343836030BD826870239A430A430721B7
:102420000A438260704730B5036A046A6408640036
:1024300004628469F025AC43120122430A24A343B9
:102440000B438261036230BD30B5036A1024A3439D
:1024500003628469036A0F252D031203AC432243F0
:10246000A024A343090119438261016230BD10B564
:1024700085229200125852689047002010BD1346E2
:1024800010B50A46002100F0A7FC002010BD13463D
:1024900010B50A46002100F035FD002010BD10B532
:1024A0000446802100F014FD0021204600F010FDBC
:1024B00010BD10B5FF230324F5331C50C31DF933A1
:1024C0009A60DA6013460A46002100F085FC00207D
:1024D00010BD10B5FF210522F5310A5000231A4620
:1024E000194600F079FC002010BD10B5FF2302242E
:1024F000F5331C5082611346C2610A46002100F088
:1025000001FD002010BD10B5FF210422F5310A5055
:1025100000231A46194600F0F5FC002010BD00000B
:1025200010B50A46024903A000F016FB004810BD92
:102530004804002067735F75736220636F6E66697D
:102540006700000012200880004870473400002017
:1025500010B50A46024903A000F0FEFA004810BD7B
:102560004804002067735F75736220696E7465723A
:102570006661636500000000042008800048704721
:102580003000002010B50A46024903A000F0E4FA2A
:10259000004810BD4804002043616E646F2E6162E4
:1025A0006600000010B50A46024903A000F0D4FA04
:1025B000004810BD4804002043616E646F000000B5
:1025C00030B50B4C87B00D466846E16A01F084F8DF
:1025D00002A8216B01F080F804A8616B01F07CF87F
:1025E0002A460449684600F0B7FA024807B030BDF1
:1025F00080F7FF1F4804002070B50646FF30FF300B
:102600000230846948780D46030000F0FFFD0A0699
:1026100006062114111C061E0621204608224430FD
:10262000FDF78DFDEA8821463046FFF742FF12E0B4
:102630000C220F4902E00E4928220C312046FDF7FA
:102640007EFDEA880EE0606F0AE06888002804D00A
:102650003046FFF724FF002070BD002001F00CF889
:102660000422206021463046FFF73FFFF3E70000D9
:10267000183C000810B54A78202A0FD18A88042A0D
:1026800002D0052A0AD106E0CA880B4B4024402A12
:102690000CD922460AE04A88002A01D0002010BD49
:1026A000054BCA8840339224922AF2D81946FFF784
:1026B0001CFF012010BD0000D400002010B5FFF762
:1026C000D9FF10BDFF30FF30023080690021016466
:1026D00008467047F8B50746FF30FF30023084697E
:1026E0000226206E401C2066384600F017FB142896
:1026F0000AD3206D01F00DFA050005D0A16D606DC3
:1027000001F034FA0026A565384600F0EDF83046B1
:10271000F8BD10B50446812100F062FA022120467E
:1027200000F05EFA002010BDF8B5FF30FF30023037
:102730008469254644356878030000F067FD0A0681
:1027400053257474747409741C742068E0646AE01E
:102750002068002806D00022D2433549E06E00F000
:10276000E6FF60E0688880000019C06D00F004FE9C
:102770000146E06E33E0A878216800F091FF002860
:1027800051D000F055FF4EE0688800284BD120461C
:10279000E76DFDF706FD002802D0012806D042E0D3
:1027A000384600F04FFD0021E06E18E0201DFDF7D7
:1027B000F8FCC0062646C00F60367074201DFDF779
:1027C000F0FC0106C90F31760107C207CB0F800765
:1027D000C10FD20F384600F03BFD0121E06E00F042
:1027E000B6FF20E0688800281DD120460C30FDF798
:1027F000D8FCC0B2009020460830FDF7D2FCC7B22A
:102800002046FDF7CEFC0646201DFDF7CAFC301819
:10281000C6B220461030FDF7C4FC81B23B463246BA
:10282000E06D00F0AFFEFF2068700020F8BD0000F2
:102830008500002032210180004870478C00002074
:10284000FF30FF30023080696030407C002801D0CA
:10285000022070470120704710B5E02907D0EE290B
:102860000BD000211180FFF71AFE002010BD054992
:1028700005A000F071F9034810BD122010800B482C
:1028800010BD00004804002043616E646F2066693B
:10289000726D776172652075706772616465206919
:1028A0006E7465726661636500000000C000002000
:1028B000FFB5044681B01E46174602257C21012043
:1028C000FDF761FCFF34FF3400210234002807D0FB
:1028D000029A4765C6660265A0610025816500E031
:1028E000A161284605B0F0BD10B54321C9000958C3
:1028F00018238A6D022100F06FFA10BDFF30FF30FF
:102900000230012189078069496A416700207047C8
:1029100030B50546FF30FF3002308269182460323E
:10292000507C89B0002800D11424107E00280BD0E0
:1029300022466846FDF703FC2020011B684600196B
:10294000FDF716FC694620242246284600F041F88F
:1029500009B030BDFF30FF3002308069002802D05E
:10296000002900D1C265704710B50A7860231A406B
:1029700006D0202A01D0402A09D100F047F810BD26
:1029800049780A2903D101220249FFF7AEFD002050
:1029900010BD00008400002070B543210546C90029
:1029A0004C590220002C13D02023022281212846DA
:1029B00000F006FA022220231146284600F000FA11
:1029C000206D01F08EF8A0652846FFF78DFF0020EE
:1029D00070BD134610B54322D2001258146C002C5F
:1029E00001D0012010BD012414640A46812100F0A9
:1029F00089FA002010BDFF30FF3002308069006C82
:102A0000002801D0002070470120704710B50B78D6
:102A10000A46D9065B06C90E9B0F012B04D101297A
:102A200002D19188012903D01146FFF7E5FD10BDC1
:102A30004321C900537809580024002B06D0032BEA
:102A400008D01146FFF72BFD204610BD0120603154
:102A50000874F9E70C704C708C70CC700C71FF220C
:102A60004A710622FFF741FDEEE7F8B50D46044630
:102A70004988FF300A0AFF300230130000F0C6FB1D
:102A800008500509165050454D500069237C0268D6
:102A900017E0217C02264069002905D0C16A6846FA
:102AA00088470146467047E0816AF8E7CAB21300DA
:102AB00000F0ACFB06040B0F161A1E240069237CE1
:102AC000426869461846904716E00069227C836890
:102AD00002E00069227CC3686946104698470BE013
:102AE0000069227C0369F7E70069227C4369F3E708
:102AF0000069227C8369EFE701461DE04069C9B2A5
:102B0000836B6A4620469847F6E7217C002907D167
:102B10004069416B68468847EEE7217C002904D074
:102B200029462046FFF7BBFCF8BD4069016B6846AB
:102B30008847072201464270684600880028F3D083
:102B4000EA88002AF0D0824200D902466846028014
:102B50002046FFF7CAFCF8BD70B5002300281CD042
:102B60000446002502E06D1CEDB2641C2678002EA0
:102B7000F9D16C00A41C1480CC5403225B1CCA54F1
:102B800000245B1C06E0CA545B1CDAB28C54521C55
:102B9000D3B2401C0278002AF5D170BD10B50028D0
:102BA00013D0C31DFF33FA335C69002C01D000241D
:102BB0005C61002900D01961FF210123FD310B5414
:102BC000027000F0B3F8002010BD022010BDFF30ED
:102BD00010B5FF300230006AFEF704F8002010BD87
:102BE000FF3010B5FF300230006AFDF747FF0020CC
:102BF00010BDFEB50446FF30E51DE130FF35FA3566
:102C000013460190002908D068694269002A49D01A
:102C10000198007F032843D044E02646FF368136E2
:102C20002046716F1430022934D1C2688168009245
:102C3000914207D9891A81608AB219462046FFF766
:102C400026FC13E0406811460746FDF751FA0029BB
:102C500013D10098874210D3B06F87420DD2002263
:102C600011462046FFF713FC0020B06700231A46E8
:102C70001946204600F0B0F80CE06869C1680029E8
:102C800005D00198007F032801D1204688472046BF
:102C9000FFF71FFC2878012804D10020287001E0EC
:102CA000204690470020FEBD70B50546FF35E13552
:102CB0002B46203316460446002907D058698269FE
:102CC000002A29D0287F032824D025E0FF21F531D0
:102CD000E01D0959FD3003291ED18268C1688A426E
:102CE0000BD9511A8160C068814200D301468AB273
:102CF00031462046FFF7C3FB0EE058690169002901
:102D000004D0287F032801D1204688472046FFF7BA
:102D1000FAFB01E020469047002070BDFF3010B55F
:102D2000FF300230006AFDF7B7FF10BD10B517493C
:102D3000C41DC861FF341649FA3416482162086080
:102D4000022205208A6048600020C86088610A610C
:102D5000C8610846FEF7C4FA002218231146206A0B
:102D6000FDF754FE582300228021206AFDF74EFE15
:102D7000982300228121206AFDF748FE064B01229C
:102D80000221206AFDF742FE002010BD4808002005
:102D900048060020005C00405801D800FF30CA09F6
:102DA000FF3049060230490E1C23006A59430818B7
:102DB000002A01D0203001E0FF300130807A7047D6
:102DC00010B5FF301C46FF3002301346006A224621
:102DD000FDF76CFF002010BDFF3010B5FF30023052
:102DE000006AFEF7B5F8002010BD70B50022044659
:102DF00040231146FFF7E4FF4025FF201130055125
:102E00002B46002280212046FFF7DAFFFF20012118
:102E1000FD3025620155E01DFF30FA30816900293F
:102E200004D040692179426820469047002070BD57
:102E3000FF30E130417F01770020704710B5FF215E
:102E4000FD31095C032906D1852189000958C9692A
:102E5000002900D08847002010BD01740020704771
:102E6000FF3010B5FF300230006AFEF7BFFA0020D5
:102E700010BD70B504464120C0002018054600F082
:102E80004AF82146FF3181310122084680304A67E5
:102E9000C2898A67007AC106C90E0AD001290DD0FD
:102EA000022910D0C109C901204600F011F8002004
:102EB00070BD2946204600F098F8F8E729462046DC
:102EC00000F07EF9F3E72946204600F004F9EEE72A
:102ED000FF3010B5FF300230006AFEF7B9F800206D
:102EE00010BDFF3010B5FF300230006AFEF7BDFAAA
:102EF000002010BDFF30E130017F417704210177D0
:102F000000207047FF3010B5FF300230006AFEF736
:102F1000E9F8002010BD0A7802704A784270CB7838
:102F20008A781B02D21842804B790A791B02D21888
:102F300082808A79C97909025118C1807047024696
:102F40000020002904D0FF32FF3202325161704765
:102F50000220704710B58522920012580224002AE0
:102F600004D012689047002800D10024204610BDEC
:102F700070B50E468978194D04462970012904D987
:102F800031462046FFF78BFA70BD2046FF30E13016
:102F9000027F022A15D0032AF2D1002917D06068D7
:102FA00088420AD0C1B22046FFF761FA29786160F1
:102FB0002046FFF7CFFF0228E2D02046FFF7A3FA12
:102FC00070BD0029F9D0032261600277F0E7022288
:102FD000027720466160FFF74AFAEEE7B001002071
:102FE00010B5FFF77EFF002010BDF8B5002200925B
:102FF000C61DFF364C781746FA3632460225203A6F
:10300000230000F003F90A3C55414F410906412BCA
:103010002841FFF72AFD5CE004468888002818D183
:10302000C888002815D1887817464606107F760E86
:1030300003280ED0BE7731462046FFF711FF204609
:10304000FFF761FA002E01D03D7742E0012038778A
:103050003FE0204618E0FFF78BFF3AE0CB88012BDA
:1030600012D1127F022A02D0032A0DD104E00122DC
:1030700001460831876012E00122011D0FE0127F36
:10308000022A04D0032A02D0FFF709FA21E0C76020
:103090007168002900D0C560014602220C31FFF79B
:1030A00024FA16E004464888012812D1706009E02D
:1030B0000446107F022801D00328CAD1488801287D
:1030C00007D1776070698268204690472046FFF7F5
:1030D0001AFA0098F8BDF8B504460D462878E61DA2
:1030E0004006FF3600270979800FFA36012809D0FB
:1030F0006A7830462038002A38D0012A1ED0032AA8
:103100003DD106E07069294682682046904700203C
:10311000F8BD007F022817D003282CD1688800282A
:1031200006D1002904D0802902D02046FFF7D0FE26
:103130007069294682682046904713E0007F022884
:1031400002D0032817D104E0002918D080291AD111
:1031500015E06888002812D1480603D02046FFF702
:1031600036FDE5E72046FFF7CEF908E0007F0228AC
:1031700007D003280BD029462046FFF790F93846A0
:10318000F8BD4806FBD02046FFF7A2FEF7E7C809C6
:1031900004D04806400D0519143504E04806400DDA
:1031A0000519FF3505352046FFF7F8FD002800D04A
:1031B00001202860022229462046FFF796F9DEE723
:1031C00070B50446FF30E130007F0D4603280FD173
:1031D000287901280CD88520800000598268204673
:1031E0009047E888002806D12046FFF78CF902E0D6
:1031F0002046FFF754F9002070BD000010B50248CA
:10320000FDF7E8FF10BD00004806002030B474460A
:10321000641E2578641CAB4200D21D46635D5B00D2
:10322000E31830BC184702E008C8121F08C1002A82
:10323000FAD170477047002001E001C1121F002A37
:10324000FBD170470068016801221143016070479B
:10325000F0B50468002B01D0102500E000254523BF
:103260001D43037A867901275B1E36043F041B0643
:10327000F61B3343C6793F0136058088F61B33437E
:10328000401E0343002901D0B80200E000200343A0
:10329000002A02D00120C00700E00020034320687C
:1032A0000121C9030843206020680004FCD4606841
:1032B0008007FCD520680121084320606068C007B2
:1032C000FCD02560E3612068400840002060606811
:1032D000C007FCD1FF34FF3402342068084320606B
:1032E00020683F22120290432060E06940084000BD
:1032F000E061E0680843E0606068400840006060AA
:103300000020206460646069400840006061E069FA
:103310000843E0612068400840002060F0BD00687C
:103320008069704770B50446114886B0C2690D4681
:10333000012149060A43C261C0690226084005907E
:10334000032000020090002002900320039004203C
:103350000490019669460748FDF754FA0620256057
:10336000A0800D20A071E6710120207206B070BD12
:10337000001002400004004800680068C007C01741
:10338000401C70470068C068800700D0012070476B
:1033900070B5064600200C46C043FCF70CFF211D0B
:1033A0002F48FCF708FF0825257200202073607362
:1033B000A073E07320746074A074E074700704D587
:1033C0002748211D4030FCF7F6FEB00701D530201C
:1033D00002E0F00701D00C2060737006400F3DD072
:1033E0000300FFF713FF073B050E17202A333B00AE
:1033F000201DFCF7D6FE2843211DFCF7DCFE04202F
:1034000019E0201DFCF7CDFE2843211DFCF7D3FE5B
:10341000022010E0201DFCF7C4FE20210843211DDE
:10342000FCF7C9FE1AE0201DFCF7BBFE2843211D56
:10343000FCF7C1FE1020A07310E0201DFCF7B1FEC8
:103440002843211DFCF7B7FEA57307E0201DFCF7FC
:10345000A8FE2843211DFCF7AEFEE573012070BDD8
:103460000400002070B50D460668FFF78BFF0028AA
:103470003AD03446FF34B13420684007206804D580
:103480000121C008C907401800E0400D291DFCF7C4
:1034900092FE2068800708D5281DFCF782FE0121D6
:1034A00089070843291DFCF786FE60680007000FA6
:1034B0002872A0682873A068000A6873A068000CCE
:1034C000A873A068000EE873E0682874E068000A3A
:1034D0006874E068000CA874E068000EE874F06896
:1034E00020210843F060012070BD70B504680D46CE
:1034F000A068410102D5FF34813408E0010102D502
:10350000FF34913403E0C0003AD5FF34A134002CDD
:1035100036D02068C007C00F2060281DFCF741FE90
:10352000002802DAC000001D00E040052060281DD0
:10353000FCF737FE400003D52068022108432060D5
:1035400060680009000160606068297A0907090F56
:103550000843606028460D30FCF723FE297B0002FB
:103560000843A06028461130FCF71BFE297C0002AE
:103570000843E0602068012108432060084670BDD0
:10358000002070BD70B50D4E4D1E049CB54212D882
:10359000002A10D0102A0ED8002B0CD0082B0AD8E5
:1035A000002C08D0042C06D8314081808271C37170
:1035B0000472012070BD002070BD0000FF030000F8
:1035C00010B58AB0FDF70CF9FDF7BAF86846FDF7BB
:1035D0001BF86846007BAA281FD1BB2069460873E8
:1035E0006846FDF723F80120099000200E4C079053
:1035F0000E4908943420C86006A907A8FCF78CFF80
:103600000698401C07D100F05BF8024600232146D3
:103610000220FDF7A7F8FDF779F8FDF787F8FDF729
:103620006BF80AB010BD000000F001080020024055
:103630001FB50E4802900120039000200190FDF775
:10364000CFF80B493420C860694601A8FCF764FF35
:103650000098401C06D10748002302680349022055
:10366000FDF780F8FDF748F81FBD000000F80108DD
:103670000020024010000020002801D000207047E8
:10368000014800687047000010000020034902480C
:1036900009680160704700001000002000F8010870
:1036A00010B5002801D0002010BD044802688A42ED
:1036B00002D00160FFF7BCFF012010BD1000002008
:1036C000034806C800685140414002480818704746
:1036D000ACF7FF1FBBB001000246083200230372A3
:1036E000521E824209D30B071B0F0A2B01D2303323
:1036F00000E0373313700909F2E7704710B504464C
:10370000FDF732F9214662691431824206D24A68D5
:10371000824203D202461E322D3005C1204600F0FF
:1037200037F810BD10B51C21FCF722FD10BD10B5F7
:1037300004460078607004202070226161600021DE
:10374000204600F009F8204600F022F810BD10B520
:10375000017000F01DF810BD70B5054640684A00C4
:103760008418A96020780949C207074801D08862F7
:1037700000E08861FDF7F8F861780A2251434018AB
:10378000E8606078504370BD000100000000004810
:1037900070B504460078FF2509260135F606002895
:1037A0002DD0012802D0042829D106E0FDF7DCF84D
:1037B000A169814223D2B56270BD60680028FBD048
:1037C000FDF7D2F80546E068A842F5D2A168204688
:1037D000491CA160FFF7C0FF002802D02818E06054
:1037E00070BD2069002807D001DD401E2061002146
:1037F0002046FFF7B1FF70BD0020606070BDB5616D
:1038000070BD000008B50027FDF7BCF8FEF73AFDD3
:10381000FFF7D6FEFEF7BAFAFEF71EFB8748FEF763
:1038200031FAFFF733FF8648FFF77CFF0021844819
:10383000FFF78DFF824883491C30FFF773FD8048F6
:103840001C30FFF7FFFC402000F03CF97E4C60602C
:10385000402000F037F9A060402000F033F9E0602C
:1038600018214020FCF78FFC0646002518206843ED
:103870008119606800F060F96D1C402DF6D3704826
:10388000002272492830FFF789F96D4870492830C5
:10389000FFF755FB6C486A4B826841681846283030
:1038A000FFF706F8664A00211C3210460C30FFF77D
:1038B00051F863482830FFF793FB09240121E406FF
:1038C0000022C9032046FDF749F80026FF250135EF
:1038D000A5621E20FCF712FEA5616420FCF70EFE17
:1038E000761C022EF4D3584CA06800F0FAF80500BC
:1038F00018D0014652481C30FFF7F7FD00280DD0C4
:1039000001208007406A29461431FCF754FC284600
:1039100000F05EF94A48FFF7F1FE03E02946A0688F
:1039200000F039F946482830FFF765F800280FD035
:10393000E06800F0D6F805000AD00146404828307B
:10394000FEF7E6FF002829462ED0E06800F023F9B4
:103950003B481C30FFF716FD00282DD0606800F0B2
:10396000C0F8050024D0014635481C30FFF77AFD29
:1039700000281DD02068401C206001208007406A7C
:1039800029461431FCF717FC00202946C043FCF7F8
:1039900012FC00206872A872E872284600F018F93C
:1039A0002748FFF7ABFE07E0606800F0C5F8CFE7F7
:1039B0002946606800F0C0F821481C30FFF7AFFCD2
:1039C0000546B8421BD0606800F08BF800900028D4
:1039D00015D001208007406A00991431FCF7EBFBF9
:1039E00028460099FFF7D4FC002804D0009800F086
:1039F000EFF82F4603E00099606800F09DF810484A
:103A0000FFF7C6FEFCF7B0FF811B7D20C00081429E
:103A100000D869E7FCF7A8FF0646FFF751FE0D49FD
:103A200009688842F5D0606800F05BF8A06800F093
:103A300058F8E06800F055F856E700000804002048
:103A4000BC010020006400400000002014000020A1
:103A50004800002000F00108F0B50B30C108C90093
:103A6000144F0026144A0FE003688B420BD38B429D
:103A700005D95C1A4318456830C3083B00E0436829
:103A8000136002C004E0021D10680028ECD130462B
:103A9000002803D13868002801D00020F0BD064A74
:103AA00006481060064A121AD208D20044C001200B
:103AB0003860D7E7B8010020B40100208C0800204E
:103AC0008818002070B5054610210120FCF75BFB2B
:103AD000044604212846FCF756FB2560E06020469A
:103AE00070BDF8B50546EFF3108472B600268768FE
:103AF000002F0AD06868E96882008E58401C296847
:103B0000FCF7F6FA7F1EAF60696084F310883046D8
:103B1000F8BD70B5856800260446002D0AD060689F
:103B2000E16882008E58401C2168FCF7E1FA6D1EA6
:103B3000A5606160304670BD70B505460E46002038
:103B4000EFF3108472B62A68A96891420BD26868B4
:103B500040181146FCF7CCFAE86889004650A8687E
:103B6000401CA860012084F3108870BD70B5044625
:103B70000D462268A168002091420BD2606840186F
:103B80001146FCF7B5FAE06889004550A068401C72
:103B9000A060012070BD30B50023EFF3108272B633
:103BA00085680468A5420CD24368002B0DD05B1ECB
:103BB00043604468C368A40019518168491C01230B
:103BC000816082F31088184630BD641E4460F0E7BF
:103BD00070B506460E48FEF733FE0E4C02280CD098
:103BE000002531460A48FEF793FE002831460AD0E8
:103BF000E068FFF7A1FF284670BD3146E068FFF797
:103C00009BFF012070BD6068FFF796FF0125F2E77A
:103C1000E40100200000002000000000020000007D
:103C200001000000F3000000006CDC020100000055
:103C30001000000001000000080000000400000067
:103C4000010000000004000001000000000000006E
:103C50000000000001020304060708097C3C00087C
:103C600000000020BC010000EC010008943D0008A9
:103C7000BC010020CC1E00003632000801141345A0
:103C8000251B0879041A85041AA5041AC1041A21EF
:103C9000041A510417040309041201320226405089
:103CA0001D6F602501020301139929140813271BB6
:103CB000086908411A290C13C5261B08D5044BFDB9
:103CC0002814411A350C6904412A590835010A02A1
:103CD0000A1409023213020125804B09041502FF60
:103CE000FFFF2607058102202C070502071B090498
:103CF000692009FE0101E009210BFF1B081A0F14BE
:103D000012034D12531246125412311A300219275F
:103D10001142403B0104A5510008100157494E557E
:103D200053420A1501183A921D12051201328832C7
:103D300007122A12441265127612691A6308124990
:103D4000126E1A7408127212663A611212471A55EC
:103D5000161244327332501A7B1612311235126227
:103D600012341A339612381A2D0612341A640E1AA7
:103D70002D1A1A31341A360A1A62101A65441A2D8D
:103D80000E1A30301A371A12383A391E3A343CC2F9
:043D90007DD3127A53
:020000040801F1
:04F800000000000004
:04000005080000C12E
:00000001FF
